{"contracts/AssignmentStorage.sol":{"AssignmentStorage":{"abi":[{"inputs":[],"stateMutability":"nonpayable","type":"constructor"},{"anonymous":false,"inputs":[{"indexed":true,"internalType":"uint256","name":"assignmentId","type":"uint256"},{"indexed":true,"internalType":"address","name":"gradedBy","type":"address"},{"indexed":false,"internalType":"uint8","name":"grade","type":"uint8"}],"name":"AssignmentGraded","type":"event"},{"anonymous":false,"inputs":[{"indexed":true,"internalType":"uint256","name":"assignmentId","type":"uint256"},{"indexed":true,"internalType":"address","name":"student","type":"address"},{"indexed":false,"internalType":"string","name":"fileHash","type":"string"},{"indexed":false,"internalType":"uint256","name":"timestamp","type":"uint256"}],"name":"AssignmentSubmitted","type":"event"},{"anonymous":false,"inputs":[{"indexed":true,"internalType":"address","name":"user","type":"address"},{"indexed":false,"internalType":"string","name":"role","type":"string"}],"name":"RoleAssigned","type":"event"},{"inputs":[],"name":"admin","outputs":[{"internalType":"address","name":"","type":"address"}],"stateMutability":"view","type":"function"},{"inputs":[{"internalType":"address","name":"user","type":"address"},{"internalType":"string","name":"role","type":"string"}],"name":"assignRole","outputs":[],"stateMutability":"nonpayable","type":"function"},{"inputs":[],"name":"assignmentCounter","outputs":[{"internalType":"uint256","name":"","type":"uint256"}],"stateMutability":"view","type":"function"},{"inputs":[{"internalType":"uint256","name":"","type":"uint256"}],"name":"assignments","outputs":[{"internalType":"uint256","name":"id","type":"uint256"},{"internalType":"address","name":"student","type":"address"},{"internalType":"string","name":"studentName","type":"string"},{"internalType":"string","name":"title","type":"string"},{"internalType":"string","name":"filename","type":"string"},{"internalType":"string","name":"fileHash","type":"string"},{"internalType":"uint256","name":"timestamp","type":"uint256"},{"internalType":"bool","name":"isGraded","type":"bool"},{"internalType":"uint8","name":"grade","type":"uint8"},{"internalType":"string","name":"feedback","type":"string"},{"internalType":"address","name":"gradedBy","type":"address"}],"stateMutability":"view","type":"function"},{"inputs":[{"internalType":"string","name":"fileHash","type":"string"}],"name":"checkDuplicateHash","outputs":[{"internalType":"bool","name":"","type":"bool"}],"stateMutability":"view","type":"function"},{"inputs":[],"name":"getAllAssignments","outputs":[{"components":[{"internalType":"uint256","name":"id","type":"uint256"},{"internalType":"address","name":"student","type":"address"},{"internalType":"string","name":"studentName","type":"string"},{"internalType":"string","name":"title","type":"string"},{"internalType":"string","name":"filename","type":"string"},{"internalType":"string","name":"fileHash","type":"string"},{"internalType":"uint256","name":"timestamp","type":"uint256"},{"internalType":"bool","name":"isGraded","type":"bool"},{"internalType":"uint8","name":"grade","type":"uint8"},{"internalType":"string","name":"feedback","type":"string"},{"internalType":"address","name":"gradedBy","type":"address"}],"internalType":"struct AssignmentStorage.Assignment[]","name":"","type":"tuple[]"}],"stateMutability":"view","type":"function"},{"inputs":[{"internalType":"uint256","name":"assignmentId","type":"uint256"}],"name":"getAssignment","outputs":[{"components":[{"internalType":"uint256","name":"id","type":"uint256"},{"internalType":"address","name":"student","type":"address"},{"internalType":"string","name":"studentName","type":"string"},{"internalType":"string","name":"title","type":"string"},{"internalType":"string","name":"filename","type":"string"},{"internalType":"string","name":"fileHash","type":"string"},{"internalType":"uint256","name":"timestamp","type":"uint256"},{"internalType":"bool","name":"isGraded","type":"bool"},{"internalType":"uint8","name":"grade","type":"uint8"},{"internalType":"string","name":"feedback","type":"string"},{"internalType":"address","name":"gradedBy","type":"address"}],"internalType":"struct AssignmentStorage.Assignment","name":"","type":"tuple"}],"stateMutability":"view","type":"function"},{"inputs":[{"internalType":"address","name":"student","type":"address"}],"name":"getStudentAssignments","outputs":[{"internalType":"uint256[]","name":"","type":"uint256[]"}],"stateMutability":"view","type":"function"},{"inputs":[{"internalType":"uint256","name":"assignmentId","type":"uint256"},{"internalType":"uint8","name":"grade","type":"uint8"},{"internalType":"string","name":"feedback","type":"string"}],"name":"gradeAssignment","outputs":[],"stateMutability":"nonpayable","type":"function"},{"inputs":[{"internalType":"string","name":"","type":"string"}],"name":"hashExists","outputs":[{"internalType":"bool","name":"","type":"bool"}],"stateMutability":"view","type":"function"},{"inputs":[{"internalType":"address","name":"","type":"address"},{"internalType":"uint256","name":"","type":"uint256"}],"name":"studentAssignments","outputs":[{"internalType":"uint256","name":"","type":"uint256"}],"stateMutability":"view","type":"function"},{"inputs":[{"internalType":"string","name":"studentName","type":"string"},{"internalType":"string","name":"title","type":"string"},{"internalType":"string","name":"filename","type":"string"},{"internalType":"string","name":"fileHash","type":"string"}],"name":"submitAssignment","outputs":[{"internalType":"uint256","name":"","type":"uint256"}],"stateMutability":"nonpayable","type":"function"},{"inputs":[{"internalType":"address","name":"","type":"address"}],"name":"userRoles","outputs":[{"internalType":"string","name":"","type":"string"}],"stateMutability":"view","type":"function"},{"inputs":[{"internalType":"uint256","name":"assignmentId","type":"uint256"}],"name":"verifyAssignment","outputs":[{"internalType":"bool","name":"exists","type":"bool"},{"internalType":"string","name":"fileHash","type":"string"},{"internalType":"address","name":"student","type":"address"},{"internalType":"uint256","name":"timestamp","type":"uint256"}],"stateMutability":"view","type":"function"}],"evm":{"bytecode":{"linkReferences":{},"object":"60806040523480156200001157600080fd5b50600580546001600160a01b0319163390811782556040805180820182529283526430b236b4b760d91b6020808501919091526000928352600490529020906200005c90826200010d565b506000600355620001d9565b634e487b7160e01b600052604160045260246000fd5b600181811c908216806200009357607f821691505b602082108103620000b457634e487b7160e01b600052602260045260246000fd5b50919050565b601f8211156200010857600081815260208120601f850160051c81016020861015620000e35750805b601f850160051c820191505b818110156200010457828155600101620000ef565b5050505b505050565b81516001600160401b0381111562000129576200012962000068565b62000141816200013a84546200007e565b84620000ba565b602080601f831160018114620001795760008415620001605750858301515b600019600386901b1c1916600185901b17855562000104565b600085815260208120601f198616915b82811015620001aa5788860151825594840194600190910190840162000189565b5085821015620001c95787850151600019600388901b60f8161c191681555b5050505050600190811b01905550565b61215580620001e96000396000f3fe608060405234801561001057600080fd5b50600436106100ea5760003560e01c806374d5e1001161008c5780639871e510116100665780639871e51014610208578063b7dfcbee14610236578063f851a44014610249578063fd5a693c1461027457600080fd5b806374d5e100146101a557806382af01d3146101c5578063839450fd146101e857600080fd5b80634e50c75c116100c85780634e50c75c14610133578063503631d11461015d5780635e387905146101705780636a88b5661461019057600080fd5b80630ba146b1146100ef5780630cf1dbc8146101155780633d788f431461012a575b600080fd5b6101026100fd36600461191c565b610297565b6040519081526020015b60405180910390f35b61011d6102c8565b60405161010c9190611a8f565b61010260035481565b610146610141366004611af1565b6106c2565b60405161010c9b9a99989796959493929190611b0a565b61010261016b366004611c70565b6109dc565b61018361017e366004611af1565b610d2d565b60405161010c9190611d1d565b6101a361019e366004611d37565b61108e565b005b6101b86101b3366004611d96565b611311565b60405161010c9190611db1565b6101d86101d3366004611dc4565b6113ab565b604051901515815260200161010c565b6101fb6101f6366004611d96565b6113d6565b60405161010c9190611e01565b6101d8610216366004611dc4565b805160208183018101805160018252928201919093012091525460ff1681565b6101a3610244366004611e45565b611442565b60055461025c906001600160a01b031681565b6040516001600160a01b03909116815260200161010c565b610287610282366004611af1565b61150f565b60405161010c9493929190611e93565b600260205281600052604060002081815481106102b357600080fd5b90600052602060002001600091509150505481565b6060600060035467ffffffffffffffff8111156102e7576102e7611bcd565b60405190808252806020026020018201604052801561032057816020015b61030d61188f565b8152602001906001900390816103055790505b50905060015b60035481116106bc57600081815260208181526040918290208251610160810184528154815260018201546001600160a01b031692810192909252600281018054929391929184019161037890611eca565b80601f01602080910402602001604051908101604052809291908181526020018280546103a490611eca565b80156103f15780601f106103c6576101008083540402835291602001916103f1565b820191906000526020600020905b8154815290600101906020018083116103d457829003601f168201915b5050505050815260200160038201805461040a90611eca565b80601f016020809104026020016040519081016040528092919081815260200182805461043690611eca565b80156104835780601f1061045857610100808354040283529160200191610483565b820191906000526020600020905b81548152906001019060200180831161046657829003601f168201915b5050505050815260200160048201805461049c90611eca565b80601f01602080910402602001604051908101604052809291908181526020018280546104c890611eca565b80156105155780601f106104ea57610100808354040283529160200191610515565b820191906000526020600020905b8154815290600101906020018083116104f857829003601f168201915b5050505050815260200160058201805461052e90611eca565b80601f016020809104026020016040519081016040528092919081815260200182805461055a90611eca565b80156105a75780601f1061057c576101008083540402835291602001916105a7565b820191906000526020600020905b81548152906001019060200180831161058a57829003601f168201915b505050918352505060068201546020820152600782015460ff808216151560408401526101009091041660608201526008820180546080909201916105eb90611eca565b80601f016020809104026020016040519081016040528092919081815260200182805461061790611eca565b80156106645780601f1061063957610100808354040283529160200191610664565b820191906000526020600020905b81548152906001019060200180831161064757829003601f168201915b5050509183525050600991909101546001600160a01b03166020909101528261068e600184611f14565b8151811061069e5761069e611f2d565b602002602001018190525080806106b490611f43565b915050610326565b50919050565b60006020819052908152604090208054600182015460028301805492936001600160a01b03909216926106f490611eca565b80601f016020809104026020016040519081016040528092919081815260200182805461072090611eca565b801561076d5780601f106107425761010080835404028352916020019161076d565b820191906000526020600020905b81548152906001019060200180831161075057829003601f168201915b50505050509080600301805461078290611eca565b80601f01602080910402602001604051908101604052809291908181526020018280546107ae90611eca565b80156107fb5780601f106107d0576101008083540402835291602001916107fb565b820191906000526020600020905b8154815290600101906020018083116107de57829003601f168201915b50505050509080600401805461081090611eca565b80601f016020809104026020016040519081016040528092919081815260200182805461083c90611eca565b80156108895780601f1061085e57610100808354040283529160200191610889565b820191906000526020600020905b81548152906001019060200180831161086c57829003601f168201915b50505050509080600501805461089e90611eca565b80601f01602080910402602001604051908101604052809291908181526020018280546108ca90611eca565b80156109175780601f106108ec57610100808354040283529160200191610917565b820191906000526020600020905b8154815290600101906020018083116108fa57829003601f168201915b505050600684015460078501546008860180549596929560ff808416965061010090930490921693509061094a90611eca565b80601f016020809104026020016040519081016040528092919081815260200182805461097690611eca565b80156109c35780601f10610998576101008083540402835291602001916109c3565b820191906000526020600020905b8154815290600101906020018083116109a657829003601f168201915b505050600990930154919250506001600160a01b03168b565b604051661cdd1d59195b9d60ca1b602082015260009060270160408051601f19818403018152828252805160209182012033600090815260048352929092209192610a28929101611f5c565b6040516020818303038152906040528051906020012014610a9c5760405162461bcd60e51b8152602060048201526024808201527f4f6e6c792073747564656e74732063616e207375626d69742061737369676e6d604482015263656e747360e01b60648201526084015b60405180910390fd5b600182604051610aac9190611fd2565b9081526040519081900360200190205460ff1615610b1d5760405162461bcd60e51b815260206004820152602860248201527f41737369676e6d656e7420776974682074686973206861736820616c72656164604482015267792065786973747360c01b6064820152608401610a93565b60038054906000610b2d83611f43565b909155505060035460408051610160810182528281523360208083019182528284018a8152606084018a90526080840189905260a084018890524260c0850152600060e085018190526101008501819052855180840187528181526101208601526101408501819052868152918290529390208251815590516001820180546001600160a01b0319166001600160a01b0390921691909117905591519091906002820190610bdb908261203d565b5060608201516003820190610bf0908261203d565b5060808201516004820190610c05908261203d565b5060a08201516005820190610c1a908261203d565b5060c0820151600682015560e08201516007820180546101008086015160ff160261ff00199315159390931661ffff19909116179190911790556101208201516008820190610c69908261203d565b506101409190910151600990910180546001600160a01b0319166001600160a01b039092169190911790556040516001908190610ca7908690611fd2565b9081526040805160209281900383018120805460ff191694151594909417909355336000818152600284529182208054600181018255908352929091209091018390559082907fa0743d2ebbcf02b554be8911ee93d65b945b6eb845ddc2588fcd018a553bf23890610d1c90879042906120fd565b60405180910390a395945050505050565b610d3561188f565b600082815260208181526040918290208251610160810184528154815260018201546001600160a01b0316928101929092526002810180549293919291840191610d7e90611eca565b80601f0160208091040260200160405190810160405280929190818152602001828054610daa90611eca565b8015610df75780601f10610dcc57610100808354040283529160200191610df7565b820191906000526020600020905b815481529060010190602001808311610dda57829003601f168201915b50505050508152602001600382018054610e1090611eca565b80601f0160208091040260200160405190810160405280929190818152602001828054610e3c90611eca565b8015610e895780601f10610e5e57610100808354040283529160200191610e89565b820191906000526020600020905b815481529060010190602001808311610e6c57829003601f168201915b50505050508152602001600482018054610ea290611eca565b80601f0160208091040260200160405190810160405280929190818152602001828054610ece90611eca565b8015610f1b5780601f10610ef057610100808354040283529160200191610f1b565b820191906000526020600020905b815481529060010190602001808311610efe57829003601f168201915b50505050508152602001600582018054610f3490611eca565b80601f0160208091040260200160405190810160405280929190818152602001828054610f6090611eca565b8015610fad5780601f10610f8257610100808354040283529160200191610fad565b820191906000526020600020905b815481529060010190602001808311610f9057829003601f168201915b505050918352505060068201546020820152600782015460ff80821615156040840152610100909104166060820152600882018054608090920191610ff190611eca565b80601f016020809104026020016040519081016040528092919081815260200182805461101d90611eca565b801561106a5780601f1061103f5761010080835404028352916020019161106a565b820191906000526020600020905b81548152906001019060200180831161104d57829003601f168201915b5050509183525050600991909101546001600160a01b031660209091015292915050565b604051673632b1ba3ab932b960c11b602082015260280160408051601f198184030181528282528051602091820120336000908152600483529290922091926110d8929101611f5c565b60405160208183030381529060405280519060200120148061110457506005546001600160a01b031633145b6111675760405162461bcd60e51b815260206004820152602e60248201527f4f6e6c79206c65637475726572206f722061646d696e2063616e20706572666f60448201526d3936903a3434b99030b1ba34b7b760911b6064820152608401610a93565b60008381526020819052604081205490036111c45760405162461bcd60e51b815260206004820152601960248201527f41737369676e6d656e7420646f6573206e6f74206578697374000000000000006044820152606401610a93565b60008381526020819052604090206007015460ff16156112265760405162461bcd60e51b815260206004820152601960248201527f41737369676e6d656e7420616c726561647920677261646564000000000000006044820152606401610a93565b60648260ff16111561127a5760405162461bcd60e51b815260206004820152601f60248201527f4772616465206d757374206265206265747765656e203020616e6420313030006044820152606401610a93565b600083815260208190526040902060078101805460ff85166101000261ffff199091161760011790556008016112b0828261203d565b506000838152602081815260409182902060090180546001600160a01b03191633908117909155915160ff8516815285917fa19c26b067d4c81c1a2e0cf64f56cb3bf269862928e406811332cd3c13eed1ed910160405180910390a3505050565b6004602052600090815260409020805461132a90611eca565b80601f016020809104026020016040519081016040528092919081815260200182805461135690611eca565b80156113a35780601f10611378576101008083540402835291602001916113a3565b820191906000526020600020905b81548152906001019060200180831161138657829003601f168201915b505050505081565b60006001826040516113bd9190611fd2565b9081526040519081900360200190205460ff1692915050565b6001600160a01b03811660009081526002602090815260409182902080548351818402810184019094528084526060939283018282801561143657602002820191906000526020600020905b815481526020019060010190808311611422575b50505050509050919050565b6005546001600160a01b031633146114a75760405162461bcd60e51b815260206004820152602260248201527f4f6e6c792061646d696e2063616e20706572666f726d2074686973206163746960448201526137b760f11b6064820152608401610a93565b6001600160a01b03821660009081526004602052604090206114c9828261203d565b50816001600160a01b03167f3565795c2fb8842c21347d277937778bbcfe788b5b4f790fc5e408786cbe9c90826040516115039190611db1565b60405180910390a25050565b6000818152602081815260408083208151610160810183528154815260018201546001600160a01b03169381019390935260028101805460609486948594859492939092918401919061156190611eca565b80601f016020809104026020016040519081016040528092919081815260200182805461158d90611eca565b80156115da5780601f106115af576101008083540402835291602001916115da565b820191906000526020600020905b8154815290600101906020018083116115bd57829003601f168201915b505050505081526020016003820180546115f390611eca565b80601f016020809104026020016040519081016040528092919081815260200182805461161f90611eca565b801561166c5780601f106116415761010080835404028352916020019161166c565b820191906000526020600020905b81548152906001019060200180831161164f57829003601f168201915b5050505050815260200160048201805461168590611eca565b80601f01602080910402602001604051908101604052809291908181526020018280546116b190611eca565b80156116fe5780601f106116d3576101008083540402835291602001916116fe565b820191906000526020600020905b8154815290600101906020018083116116e157829003601f168201915b5050505050815260200160058201805461171790611eca565b80601f016020809104026020016040519081016040528092919081815260200182805461174390611eca565b80156117905780601f1061176557610100808354040283529160200191611790565b820191906000526020600020905b81548152906001019060200180831161177357829003601f168201915b505050918352505060068201546020820152600782015460ff808216151560408401526101009091041660608201526008820180546080909201916117d490611eca565b80601f016020809104026020016040519081016040528092919081815260200182805461180090611eca565b801561184d5780601f106118225761010080835404028352916020019161184d565b820191906000526020600020905b81548152906001019060200180831161183057829003601f168201915b5050509183525050600991909101546001600160a01b0316602091820152815160a08301519183015160c0909301519015159991985091965090945092505050565b6040518061016001604052806000815260200160006001600160a01b031681526020016060815260200160608152602001606081526020016060815260200160008152602001600015158152602001600060ff1681526020016060815260200160006001600160a01b031681525090565b80356001600160a01b038116811461191757600080fd5b919050565b6000806040838503121561192f57600080fd5b61193883611900565b946020939093013593505050565b60005b83811015611961578181015183820152602001611949565b50506000910152565b60008151808452611982816020860160208601611946565b601f01601f19169290920160200192915050565b60006101608251845260208301516119b960208601826001600160a01b03169052565b5060408301518160408601526119d18286018261196a565b915050606083015184820360608601526119eb828261196a565b91505060808301518482036080860152611a05828261196a565b91505060a083015184820360a0860152611a1f828261196a565b91505060c083015160c085015260e0830151611a3f60e086018215159052565b506101008381015160ff16908501526101208084015185830382870152611a66838261196a565b9250505061014080840151611a85828701826001600160a01b03169052565b5090949350505050565b6000602080830181845280855180835260408601915060408160051b870101925083870160005b82811015611ae457603f19888603018452611ad2858351611996565b94509285019290850190600101611ab6565b5092979650505050505050565b600060208284031215611b0357600080fd5b5035919050565b8b81526001600160a01b038b16602082015261016060408201819052600090611b358382018d61196a565b90508281036060840152611b49818c61196a565b90508281036080840152611b5d818b61196a565b905082810360a0840152611b71818a61196a565b90508760c084015286151560e0840152611b9161010084018760ff169052565b828103610120840152611ba4818661196a565b915050611bbd6101408301846001600160a01b03169052565b9c9b505050505050505050505050565b634e487b7160e01b600052604160045260246000fd5b600082601f830112611bf457600080fd5b813567ffffffffffffffff80821115611c0f57611c0f611bcd565b604051601f8301601f19908116603f01168101908282118183101715611c3757611c37611bcd565b81604052838152866020858801011115611c5057600080fd5b836020870160208301376000602085830101528094505050505092915050565b60008060008060808587031215611c8657600080fd5b843567ffffffffffffffff80821115611c9e57600080fd5b611caa88838901611be3565b95506020870135915080821115611cc057600080fd5b611ccc88838901611be3565b94506040870135915080821115611ce257600080fd5b611cee88838901611be3565b93506060870135915080821115611d0457600080fd5b50611d1187828801611be3565b91505092959194509250565b602081526000611d306020830184611996565b9392505050565b600080600060608486031215611d4c57600080fd5b83359250602084013560ff81168114611d6457600080fd5b9150604084013567ffffffffffffffff811115611d8057600080fd5b611d8c86828701611be3565b9150509250925092565b600060208284031215611da857600080fd5b611d3082611900565b602081526000611d30602083018461196a565b600060208284031215611dd657600080fd5b813567ffffffffffffffff811115611ded57600080fd5b611df984828501611be3565b949350505050565b6020808252825182820181905260009190848201906040850190845b81811015611e3957835183529284019291840191600101611e1d565b50909695505050505050565b60008060408385031215611e5857600080fd5b611e6183611900565b9150602083013567ffffffffffffffff811115611e7d57600080fd5b611e8985828601611be3565b9150509250929050565b8415158152608060208201526000611eae608083018661196a565b6001600160a01b03949094166040830152506060015292915050565b600181811c90821680611ede57607f821691505b6020821081036106bc57634e487b7160e01b600052602260045260246000fd5b634e487b7160e01b600052601160045260246000fd5b81810381811115611f2757611f27611efe565b92915050565b634e487b7160e01b600052603260045260246000fd5b600060018201611f5557611f55611efe565b5060010190565b6000808354611f6a81611eca565b60018281168015611f825760018114611f9757611fc6565b60ff1984168752821515830287019450611fc6565b8760005260208060002060005b85811015611fbd5781548a820152908401908201611fa4565b50505082870194505b50929695505050505050565b60008251611fe4818460208701611946565b9190910192915050565b601f82111561203857600081815260208120601f850160051c810160208610156120155750805b601f850160051c820191505b8181101561203457828155600101612021565b5050505b505050565b815167ffffffffffffffff81111561205757612057611bcd565b61206b816120658454611eca565b84611fee565b602080601f8311600181146120a057600084156120885750858301515b600019600386901b1c1916600185901b178555612034565b600085815260208120601f198616915b828110156120cf578886015182559484019460019091019084016120b0565b50858210156120ed5787850151600019600388901b60f8161c191681555b5050505050600190811b01905550565b604081526000612110604083018561196a565b9050826020830152939250505056fea26469706673582212203fa5e934d4a236f119775f3762bc9d7a7066e9580d06b1b88676172e50c9638d64736f6c63430008130033","opcodes":"PUSH1 0x80 PUSH1 0x40 MSTORE CALLVALUE DUP1 ISZERO PUSH3 0x11 JUMPI PUSH1 0x0 DUP1 REVERT JUMPDEST POP PUSH1 0x5 DUP1 SLOAD PUSH1 0x1 PUSH1 0x1 PUSH1 0xA0 SHL SUB NOT AND CALLER SWAP1 DUP2 OR DUP3 SSTORE PUSH1 0x40 DUP1 MLOAD DUP1 DUP3 ADD DUP3 MSTORE SWAP3 DUP4 MSTORE PUSH5 0x30B236B4B7 PUSH1 0xD9 SHL PUSH1 0x20 DUP1 DUP6 ADD SWAP2 SWAP1 SWAP2 MSTORE PUSH1 0x0 SWAP3 DUP4 MSTORE PUSH1 0x4 SWAP1 MSTORE SWAP1 KECCAK256 SWAP1 PUSH3 0x5C SWAP1 DUP3 PUSH3 0x10D JUMP JUMPDEST POP PUSH1 0x0 PUSH1 0x3 SSTORE PUSH3 0x1D9 JUMP JUMPDEST PUSH4 0x4E487B71 PUSH1 0xE0 SHL PUSH1 0x0 MSTORE PUSH1 0x41 PUSH1 0x4 MSTORE PUSH1 0x24 PUSH1 0x0 REVERT JUMPDEST PUSH1 0x1 DUP2 DUP2 SHR SWAP1 DUP3 AND DUP1 PUSH3 0x93 JUMPI PUSH1 0x7F DUP3 AND SWAP2 POP JUMPDEST PUSH1 0x20 DUP3 LT DUP2 SUB PUSH3 0xB4 JUMPI PUSH4 0x4E487B71 PUSH1 0xE0 SHL PUSH1 0x0 MSTORE PUSH1 0x22 PUSH1 0x4 MSTORE PUSH1 0x24 PUSH1 0x0 REVERT JUMPDEST POP SWAP2 SWAP1 POP JUMP JUMPDEST PUSH1 0x1F DUP3 GT ISZERO PUSH3 0x108 JUMPI PUSH1 0x0 DUP2 DUP2 MSTORE PUSH1 0x20 DUP2 KECCAK256 PUSH1 0x1F DUP6 ADD PUSH1 0x5 SHR DUP2 ADD PUSH1 0x20 DUP7 LT ISZERO PUSH3 0xE3 JUMPI POP DUP1 JUMPDEST PUSH1 0x1F DUP6 ADD PUSH1 0x5 SHR DUP3 ADD SWAP2 POP JUMPDEST DUP2 DUP2 LT ISZERO PUSH3 0x104 JUMPI DUP3 DUP2 SSTORE PUSH1 0x1 ADD PUSH3 0xEF JUMP JUMPDEST POP POP POP JUMPDEST POP POP POP JUMP JUMPDEST DUP2 MLOAD PUSH1 0x1 PUSH1 0x1 PUSH1 0x40 SHL SUB DUP2 GT ISZERO PUSH3 0x129 JUMPI PUSH3 0x129 PUSH3 0x68 JUMP JUMPDEST PUSH3 0x141 DUP2 PUSH3 0x13A DUP5 SLOAD PUSH3 0x7E JUMP JUMPDEST DUP5 PUSH3 0xBA JUMP JUMPDEST PUSH1 0x20 DUP1 PUSH1 0x1F DUP4 GT PUSH1 0x1 DUP2 EQ PUSH3 0x179 JUMPI PUSH1 0x0 DUP5 ISZERO PUSH3 0x160 JUMPI POP DUP6 DUP4 ADD MLOAD JUMPDEST PUSH1 0x0 NOT PUSH1 0x3 DUP7 SWAP1 SHL SHR NOT AND PUSH1 0x1 DUP6 SWAP1 SHL OR DUP6 SSTORE PUSH3 0x104 JUMP JUMPDEST PUSH1 0x0 DUP6 DUP2 MSTORE PUSH1 0x20 DUP2 KECCAK256 PUSH1 0x1F NOT DUP7 AND SWAP2 JUMPDEST DUP3 DUP2 LT ISZERO PUSH3 0x1AA JUMPI DUP9 DUP7 ADD MLOAD DUP3 SSTORE SWAP5 DUP5 ADD SWAP5 PUSH1 0x1 SWAP1 SWAP2 ADD SWAP1 DUP5 ADD PUSH3 0x189 JUMP JUMPDEST POP DUP6 DUP3 LT ISZERO PUSH3 0x1C9 JUMPI DUP8 DUP6 ADD MLOAD PUSH1 0x0 NOT PUSH1 0x3 DUP9 SWAP1 SHL PUSH1 0xF8 AND SHR NOT AND DUP2 SSTORE JUMPDEST POP POP POP POP POP PUSH1 0x1 SWAP1 DUP2 SHL ADD SWAP1 SSTORE POP JUMP JUMPDEST PUSH2 0x2155 DUP1 PUSH3 0x1E9 PUSH1 0x0 CODECOPY PUSH1 0x0 RETURN INVALID PUSH1 0x80 PUSH1 0x40 MSTORE CALLVALUE DUP1 ISZERO PUSH2 0x10 JUMPI PUSH1 0x0 DUP1 REVERT JUMPDEST POP PUSH1 0x4 CALLDATASIZE LT PUSH2 0xEA JUMPI PUSH1 0x0 CALLDATALOAD PUSH1 0xE0 SHR DUP1 PUSH4 0x74D5E100 GT PUSH2 0x8C JUMPI DUP1 PUSH4 0x9871E510 GT PUSH2 0x66 JUMPI DUP1 PUSH4 0x9871E510 EQ PUSH2 0x208 JUMPI DUP1 PUSH4 0xB7DFCBEE EQ PUSH2 0x236 JUMPI DUP1 PUSH4 0xF851A440 EQ PUSH2 0x249 JUMPI DUP1 PUSH4 0xFD5A693C EQ PUSH2 0x274 JUMPI PUSH1 0x0 DUP1 REVERT JUMPDEST DUP1 PUSH4 0x74D5E100 EQ PUSH2 0x1A5 JUMPI DUP1 PUSH4 0x82AF01D3 EQ PUSH2 0x1C5 JUMPI DUP1 PUSH4 0x839450FD EQ PUSH2 0x1E8 JUMPI PUSH1 0x0 DUP1 REVERT JUMPDEST DUP1 PUSH4 0x4E50C75C GT PUSH2 0xC8 JUMPI DUP1 PUSH4 0x4E50C75C EQ PUSH2 0x133 JUMPI DUP1 PUSH4 0x503631D1 EQ PUSH2 0x15D JUMPI DUP1 PUSH4 0x5E387905 EQ PUSH2 0x170 JUMPI DUP1 PUSH4 0x6A88B566 EQ PUSH2 0x190 JUMPI PUSH1 0x0 DUP1 REVERT JUMPDEST DUP1 PUSH4 0xBA146B1 EQ PUSH2 0xEF JUMPI DUP1 PUSH4 0xCF1DBC8 EQ PUSH2 0x115 JUMPI DUP1 PUSH4 0x3D788F43 EQ PUSH2 0x12A JUMPI JUMPDEST PUSH1 0x0 DUP1 REVERT JUMPDEST PUSH2 0x102 PUSH2 0xFD CALLDATASIZE PUSH1 0x4 PUSH2 0x191C JUMP JUMPDEST PUSH2 0x297 JUMP JUMPDEST PUSH1 0x40 MLOAD SWAP1 DUP2 MSTORE PUSH1 0x20 ADD JUMPDEST PUSH1 0x40 MLOAD DUP1 SWAP2 SUB SWAP1 RETURN JUMPDEST PUSH2 0x11D PUSH2 0x2C8 JUMP JUMPDEST PUSH1 0x40 MLOAD PUSH2 0x10C SWAP2 SWAP1 PUSH2 0x1A8F JUMP JUMPDEST PUSH2 0x102 PUSH1 0x3 SLOAD DUP2 JUMP JUMPDEST PUSH2 0x146 PUSH2 0x141 CALLDATASIZE PUSH1 0x4 PUSH2 0x1AF1 JUMP JUMPDEST PUSH2 0x6C2 JUMP JUMPDEST PUSH1 0x40 MLOAD PUSH2 0x10C SWAP12 SWAP11 SWAP10 SWAP9 SWAP8 SWAP7 SWAP6 SWAP5 SWAP4 SWAP3 SWAP2 SWAP1 PUSH2 0x1B0A JUMP JUMPDEST PUSH2 0x102 PUSH2 0x16B CALLDATASIZE PUSH1 0x4 PUSH2 0x1C70 JUMP JUMPDEST PUSH2 0x9DC JUMP JUMPDEST PUSH2 0x183 PUSH2 0x17E CALLDATASIZE PUSH1 0x4 PUSH2 0x1AF1 JUMP JUMPDEST PUSH2 0xD2D JUMP JUMPDEST PUSH1 0x40 MLOAD PUSH2 0x10C SWAP2 SWAP1 PUSH2 0x1D1D JUMP JUMPDEST PUSH2 0x1A3 PUSH2 0x19E CALLDATASIZE PUSH1 0x4 PUSH2 0x1D37 JUMP JUMPDEST PUSH2 0x108E JUMP JUMPDEST STOP JUMPDEST PUSH2 0x1B8 PUSH2 0x1B3 CALLDATASIZE PUSH1 0x4 PUSH2 0x1D96 JUMP JUMPDEST PUSH2 0x1311 JUMP JUMPDEST PUSH1 0x40 MLOAD PUSH2 0x10C SWAP2 SWAP1 PUSH2 0x1DB1 JUMP JUMPDEST PUSH2 0x1D8 PUSH2 0x1D3 CALLDATASIZE PUSH1 0x4 PUSH2 0x1DC4 JUMP JUMPDEST PUSH2 0x13AB JUMP JUMPDEST PUSH1 0x40 MLOAD SWAP1 ISZERO ISZERO DUP2 MSTORE PUSH1 0x20 ADD PUSH2 0x10C JUMP JUMPDEST PUSH2 0x1FB PUSH2 0x1F6 CALLDATASIZE PUSH1 0x4 PUSH2 0x1D96 JUMP JUMPDEST PUSH2 0x13D6 JUMP JUMPDEST PUSH1 0x40 MLOAD PUSH2 0x10C SWAP2 SWAP1 PUSH2 0x1E01 JUMP JUMPDEST PUSH2 0x1D8 PUSH2 0x216 CALLDATASIZE PUSH1 0x4 PUSH2 0x1DC4 JUMP JUMPDEST DUP1 MLOAD PUSH1 0x20 DUP2 DUP4 ADD DUP2 ADD DUP1 MLOAD PUSH1 0x1 DUP3 MSTORE SWAP3 DUP3 ADD SWAP2 SWAP1 SWAP4 ADD KECCAK256 SWAP2 MSTORE SLOAD PUSH1 0xFF AND DUP2 JUMP JUMPDEST PUSH2 0x1A3 PUSH2 0x244 CALLDATASIZE PUSH1 0x4 PUSH2 0x1E45 JUMP JUMPDEST PUSH2 0x1442 JUMP JUMPDEST PUSH1 0x5 SLOAD PUSH2 0x25C SWAP1 PUSH1 0x1 PUSH1 0x1 PUSH1 0xA0 SHL SUB AND DUP2 JUMP JUMPDEST PUSH1 0x40 MLOAD PUSH1 0x1 PUSH1 0x1 PUSH1 0xA0 SHL SUB SWAP1 SWAP2 AND DUP2 MSTORE PUSH1 0x20 ADD PUSH2 0x10C JUMP JUMPDEST PUSH2 0x287 PUSH2 0x282 CALLDATASIZE PUSH1 0x4 PUSH2 0x1AF1 JUMP JUMPDEST PUSH2 0x150F JUMP JUMPDEST PUSH1 0x40 MLOAD PUSH2 0x10C SWAP5 SWAP4 SWAP3 SWAP2 SWAP1 PUSH2 0x1E93 JUMP JUMPDEST PUSH1 0x2 PUSH1 0x20 MSTORE DUP2 PUSH1 0x0 MSTORE PUSH1 0x40 PUSH1 0x0 KECCAK256 DUP2 DUP2 SLOAD DUP2 LT PUSH2 0x2B3 JUMPI PUSH1 0x0 DUP1 REVERT JUMPDEST SWAP1 PUSH1 0x0 MSTORE PUSH1 0x20 PUSH1 0x0 KECCAK256 ADD PUSH1 0x0 SWAP2 POP SWAP2 POP POP SLOAD DUP2 JUMP JUMPDEST PUSH1 0x60 PUSH1 0x0 PUSH1 0x3 SLOAD PUSH8 0xFFFFFFFFFFFFFFFF DUP2 GT ISZERO PUSH2 0x2E7 JUMPI PUSH2 0x2E7 PUSH2 0x1BCD JUMP JUMPDEST PUSH1 0x40 MLOAD SWAP1 DUP1 DUP3 MSTORE DUP1 PUSH1 0x20 MUL PUSH1 0x20 ADD DUP3 ADD PUSH1 0x40 MSTORE DUP1 ISZERO PUSH2 0x320 JUMPI DUP2 PUSH1 0x20 ADD JUMPDEST PUSH2 0x30D PUSH2 0x188F JUMP JUMPDEST DUP2 MSTORE PUSH1 0x20 ADD SWAP1 PUSH1 0x1 SWAP1 SUB SWAP1 DUP2 PUSH2 0x305 JUMPI SWAP1 POP JUMPDEST POP SWAP1 POP PUSH1 0x1 JUMPDEST PUSH1 0x3 SLOAD DUP2 GT PUSH2 0x6BC JUMPI PUSH1 0x0 DUP2 DUP2 MSTORE PUSH1 0x20 DUP2 DUP2 MSTORE PUSH1 0x40 SWAP2 DUP3 SWAP1 KECCAK256 DUP3 MLOAD PUSH2 0x160 DUP2 ADD DUP5 MSTORE DUP2 SLOAD DUP2 MSTORE PUSH1 0x1 DUP3 ADD SLOAD PUSH1 0x1 PUSH1 0x1 PUSH1 0xA0 SHL SUB AND SWAP3 DUP2 ADD SWAP3 SWAP1 SWAP3 MSTORE PUSH1 0x2 DUP2 ADD DUP1 SLOAD SWAP3 SWAP4 SWAP2 SWAP3 SWAP2 DUP5 ADD SWAP2 PUSH2 0x378 SWAP1 PUSH2 0x1ECA JUMP JUMPDEST DUP1 PUSH1 0x1F ADD PUSH1 0x20 DUP1 SWAP2 DIV MUL PUSH1 0x20 ADD PUSH1 0x40 MLOAD SWAP1 DUP2 ADD PUSH1 0x40 MSTORE DUP1 SWAP3 SWAP2 SWAP1 DUP2 DUP2 MSTORE PUSH1 0x20 ADD DUP3 DUP1 SLOAD PUSH2 0x3A4 SWAP1 PUSH2 0x1ECA JUMP JUMPDEST DUP1 ISZERO PUSH2 0x3F1 JUMPI DUP1 PUSH1 0x1F LT PUSH2 0x3C6 JUMPI PUSH2 0x100 DUP1 DUP4 SLOAD DIV MUL DUP4 MSTORE SWAP2 PUSH1 0x20 ADD SWAP2 PUSH2 0x3F1 JUMP JUMPDEST DUP3 ADD SWAP2 SWAP1 PUSH1 0x0 MSTORE PUSH1 0x20 PUSH1 0x0 KECCAK256 SWAP1 JUMPDEST DUP2 SLOAD DUP2 MSTORE SWAP1 PUSH1 0x1 ADD SWAP1 PUSH1 0x20 ADD DUP1 DUP4 GT PUSH2 0x3D4 JUMPI DUP3 SWAP1 SUB PUSH1 0x1F AND DUP3 ADD SWAP2 JUMPDEST POP POP POP POP POP DUP2 MSTORE PUSH1 0x20 ADD PUSH1 0x3 DUP3 ADD DUP1 SLOAD PUSH2 0x40A SWAP1 PUSH2 0x1ECA JUMP JUMPDEST DUP1 PUSH1 0x1F ADD PUSH1 0x20 DUP1 SWAP2 DIV MUL PUSH1 0x20 ADD PUSH1 0x40 MLOAD SWAP1 DUP2 ADD PUSH1 0x40 MSTORE DUP1 SWAP3 SWAP2 SWAP1 DUP2 DUP2 MSTORE PUSH1 0x20 ADD DUP3 DUP1 SLOAD PUSH2 0x436 SWAP1 PUSH2 0x1ECA JUMP JUMPDEST DUP1 ISZERO PUSH2 0x483 JUMPI DUP1 PUSH1 0x1F LT PUSH2 0x458 JUMPI PUSH2 0x100 DUP1 DUP4 SLOAD DIV MUL DUP4 MSTORE SWAP2 PUSH1 0x20 ADD SWAP2 PUSH2 0x483 JUMP JUMPDEST DUP3 ADD SWAP2 SWAP1 PUSH1 0x0 MSTORE PUSH1 0x20 PUSH1 0x0 KECCAK256 SWAP1 JUMPDEST DUP2 SLOAD DUP2 MSTORE SWAP1 PUSH1 0x1 ADD SWAP1 PUSH1 0x20 ADD DUP1 DUP4 GT PUSH2 0x466 JUMPI DUP3 SWAP1 SUB PUSH1 0x1F AND DUP3 ADD SWAP2 JUMPDEST POP POP POP POP POP DUP2 MSTORE PUSH1 0x20 ADD PUSH1 0x4 DUP3 ADD DUP1 SLOAD PUSH2 0x49C SWAP1 PUSH2 0x1ECA JUMP JUMPDEST DUP1 PUSH1 0x1F ADD PUSH1 0x20 DUP1 SWAP2 DIV MUL PUSH1 0x20 ADD PUSH1 0x40 MLOAD SWAP1 DUP2 ADD PUSH1 0x40 MSTORE DUP1 SWAP3 SWAP2 SWAP1 DUP2 DUP2 MSTORE PUSH1 0x20 ADD DUP3 DUP1 SLOAD PUSH2 0x4C8 SWAP1 PUSH2 0x1ECA JUMP JUMPDEST DUP1 ISZERO PUSH2 0x515 JUMPI DUP1 PUSH1 0x1F LT PUSH2 0x4EA JUMPI PUSH2 0x100 DUP1 DUP4 SLOAD DIV MUL DUP4 MSTORE SWAP2 PUSH1 0x20 ADD SWAP2 PUSH2 0x515 JUMP JUMPDEST DUP3 ADD SWAP2 SWAP1 PUSH1 0x0 MSTORE PUSH1 0x20 PUSH1 0x0 KECCAK256 SWAP1 JUMPDEST DUP2 SLOAD DUP2 MSTORE SWAP1 PUSH1 0x1 ADD SWAP1 PUSH1 0x20 ADD DUP1 DUP4 GT PUSH2 0x4F8 JUMPI DUP3 SWAP1 SUB PUSH1 0x1F AND DUP3 ADD SWAP2 JUMPDEST POP POP POP POP POP DUP2 MSTORE PUSH1 0x20 ADD PUSH1 0x5 DUP3 ADD DUP1 SLOAD PUSH2 0x52E SWAP1 PUSH2 0x1ECA JUMP JUMPDEST DUP1 PUSH1 0x1F ADD PUSH1 0x20 DUP1 SWAP2 DIV MUL PUSH1 0x20 ADD PUSH1 0x40 MLOAD SWAP1 DUP2 ADD PUSH1 0x40 MSTORE DUP1 SWAP3 SWAP2 SWAP1 DUP2 DUP2 MSTORE PUSH1 0x20 ADD DUP3 DUP1 SLOAD PUSH2 0x55A SWAP1 PUSH2 0x1ECA JUMP JUMPDEST DUP1 ISZERO PUSH2 0x5A7 JUMPI DUP1 PUSH1 0x1F LT PUSH2 0x57C JUMPI PUSH2 0x100 DUP1 DUP4 SLOAD DIV MUL DUP4 MSTORE SWAP2 PUSH1 0x20 ADD SWAP2 PUSH2 0x5A7 JUMP JUMPDEST DUP3 ADD SWAP2 SWAP1 PUSH1 0x0 MSTORE PUSH1 0x20 PUSH1 0x0 KECCAK256 SWAP1 JUMPDEST DUP2 SLOAD DUP2 MSTORE SWAP1 PUSH1 0x1 ADD SWAP1 PUSH1 0x20 ADD DUP1 DUP4 GT PUSH2 0x58A JUMPI DUP3 SWAP1 SUB PUSH1 0x1F AND DUP3 ADD SWAP2 JUMPDEST POP POP POP SWAP2 DUP4 MSTORE POP POP PUSH1 0x6 DUP3 ADD SLOAD PUSH1 0x20 DUP3 ADD MSTORE PUSH1 0x7 DUP3 ADD SLOAD PUSH1 0xFF DUP1 DUP3 AND ISZERO ISZERO PUSH1 0x40 DUP5 ADD MSTORE PUSH2 0x100 SWAP1 SWAP2 DIV AND PUSH1 0x60 DUP3 ADD MSTORE PUSH1 0x8 DUP3 ADD DUP1 SLOAD PUSH1 0x80 SWAP1 SWAP3 ADD SWAP2 PUSH2 0x5EB SWAP1 PUSH2 0x1ECA JUMP JUMPDEST DUP1 PUSH1 0x1F ADD PUSH1 0x20 DUP1 SWAP2 DIV MUL PUSH1 0x20 ADD PUSH1 0x40 MLOAD SWAP1 DUP2 ADD PUSH1 0x40 MSTORE DUP1 SWAP3 SWAP2 SWAP1 DUP2 DUP2 MSTORE PUSH1 0x20 ADD DUP3 DUP1 SLOAD PUSH2 0x617 SWAP1 PUSH2 0x1ECA JUMP JUMPDEST DUP1 ISZERO PUSH2 0x664 JUMPI DUP1 PUSH1 0x1F LT PUSH2 0x639 JUMPI PUSH2 0x100 DUP1 DUP4 SLOAD DIV MUL DUP4 MSTORE SWAP2 PUSH1 0x20 ADD SWAP2 PUSH2 0x664 JUMP JUMPDEST DUP3 ADD SWAP2 SWAP1 PUSH1 0x0 MSTORE PUSH1 0x20 PUSH1 0x0 KECCAK256 SWAP1 JUMPDEST DUP2 SLOAD DUP2 MSTORE SWAP1 PUSH1 0x1 ADD SWAP1 PUSH1 0x20 ADD DUP1 DUP4 GT PUSH2 0x647 JUMPI DUP3 SWAP1 SUB PUSH1 0x1F AND DUP3 ADD SWAP2 JUMPDEST POP POP POP SWAP2 DUP4 MSTORE POP POP PUSH1 0x9 SWAP2 SWAP1 SWAP2 ADD SLOAD PUSH1 0x1 PUSH1 0x1 PUSH1 0xA0 SHL SUB AND PUSH1 0x20 SWAP1 SWAP2 ADD MSTORE DUP3 PUSH2 0x68E PUSH1 0x1 DUP5 PUSH2 0x1F14 JUMP JUMPDEST DUP2 MLOAD DUP2 LT PUSH2 0x69E JUMPI PUSH2 0x69E PUSH2 0x1F2D JUMP JUMPDEST PUSH1 0x20 MUL PUSH1 0x20 ADD ADD DUP2 SWAP1 MSTORE POP DUP1 DUP1 PUSH2 0x6B4 SWAP1 PUSH2 0x1F43 JUMP JUMPDEST SWAP2 POP POP PUSH2 0x326 JUMP JUMPDEST POP SWAP2 SWAP1 POP JUMP JUMPDEST PUSH1 0x0 PUSH1 0x20 DUP2 SWAP1 MSTORE SWAP1 DUP2 MSTORE PUSH1 0x40 SWAP1 KECCAK256 DUP1 SLOAD PUSH1 0x1 DUP3 ADD SLOAD PUSH1 0x2 DUP4 ADD DUP1 SLOAD SWAP3 SWAP4 PUSH1 0x1 PUSH1 0x1 PUSH1 0xA0 SHL SUB SWAP1 SWAP3 AND SWAP3 PUSH2 0x6F4 SWAP1 PUSH2 0x1ECA JUMP JUMPDEST DUP1 PUSH1 0x1F ADD PUSH1 0x20 DUP1 SWAP2 DIV MUL PUSH1 0x20 ADD PUSH1 0x40 MLOAD SWAP1 DUP2 ADD PUSH1 0x40 MSTORE DUP1 SWAP3 SWAP2 SWAP1 DUP2 DUP2 MSTORE PUSH1 0x20 ADD DUP3 DUP1 SLOAD PUSH2 0x720 SWAP1 PUSH2 0x1ECA JUMP JUMPDEST DUP1 ISZERO PUSH2 0x76D JUMPI DUP1 PUSH1 0x1F LT PUSH2 0x742 JUMPI PUSH2 0x100 DUP1 DUP4 SLOAD DIV MUL DUP4 MSTORE SWAP2 PUSH1 0x20 ADD SWAP2 PUSH2 0x76D JUMP JUMPDEST DUP3 ADD SWAP2 SWAP1 PUSH1 0x0 MSTORE PUSH1 0x20 PUSH1 0x0 KECCAK256 SWAP1 JUMPDEST DUP2 SLOAD DUP2 MSTORE SWAP1 PUSH1 0x1 ADD SWAP1 PUSH1 0x20 ADD DUP1 DUP4 GT PUSH2 0x750 JUMPI DUP3 SWAP1 SUB PUSH1 0x1F AND DUP3 ADD SWAP2 JUMPDEST POP POP POP POP POP SWAP1 DUP1 PUSH1 0x3 ADD DUP1 SLOAD PUSH2 0x782 SWAP1 PUSH2 0x1ECA JUMP JUMPDEST DUP1 PUSH1 0x1F ADD PUSH1 0x20 DUP1 SWAP2 DIV MUL PUSH1 0x20 ADD PUSH1 0x40 MLOAD SWAP1 DUP2 ADD PUSH1 0x40 MSTORE DUP1 SWAP3 SWAP2 SWAP1 DUP2 DUP2 MSTORE PUSH1 0x20 ADD DUP3 DUP1 SLOAD PUSH2 0x7AE SWAP1 PUSH2 0x1ECA JUMP JUMPDEST DUP1 ISZERO PUSH2 0x7FB JUMPI DUP1 PUSH1 0x1F LT PUSH2 0x7D0 JUMPI PUSH2 0x100 DUP1 DUP4 SLOAD DIV MUL DUP4 MSTORE SWAP2 PUSH1 0x20 ADD SWAP2 PUSH2 0x7FB JUMP JUMPDEST DUP3 ADD SWAP2 SWAP1 PUSH1 0x0 MSTORE PUSH1 0x20 PUSH1 0x0 KECCAK256 SWAP1 JUMPDEST DUP2 SLOAD DUP2 MSTORE SWAP1 PUSH1 0x1 ADD SWAP1 PUSH1 0x20 ADD DUP1 DUP4 GT PUSH2 0x7DE JUMPI DUP3 SWAP1 SUB PUSH1 0x1F AND DUP3 ADD SWAP2 JUMPDEST POP POP POP POP POP SWAP1 DUP1 PUSH1 0x4 ADD DUP1 SLOAD PUSH2 0x810 SWAP1 PUSH2 0x1ECA JUMP JUMPDEST DUP1 PUSH1 0x1F ADD PUSH1 0x20 DUP1 SWAP2 DIV MUL PUSH1 0x20 ADD PUSH1 0x40 MLOAD SWAP1 DUP2 ADD PUSH1 0x40 MSTORE DUP1 SWAP3 SWAP2 SWAP1 DUP2 DUP2 MSTORE PUSH1 0x20 ADD DUP3 DUP1 SLOAD PUSH2 0x83C SWAP1 PUSH2 0x1ECA JUMP JUMPDEST DUP1 ISZERO PUSH2 0x889 JUMPI DUP1 PUSH1 0x1F LT PUSH2 0x85E JUMPI PUSH2 0x100 DUP1 DUP4 SLOAD DIV MUL DUP4 MSTORE SWAP2 PUSH1 0x20 ADD SWAP2 PUSH2 0x889 JUMP JUMPDEST DUP3 ADD SWAP2 SWAP1 PUSH1 0x0 MSTORE PUSH1 0x20 PUSH1 0x0 KECCAK256 SWAP1 JUMPDEST DUP2 SLOAD DUP2 MSTORE SWAP1 PUSH1 0x1 ADD SWAP1 PUSH1 0x20 ADD DUP1 DUP4 GT PUSH2 0x86C JUMPI DUP3 SWAP1 SUB PUSH1 0x1F AND DUP3 ADD SWAP2 JUMPDEST POP POP POP POP POP SWAP1 DUP1 PUSH1 0x5 ADD DUP1 SLOAD PUSH2 0x89E SWAP1 PUSH2 0x1ECA JUMP JUMPDEST DUP1 PUSH1 0x1F ADD PUSH1 0x20 DUP1 SWAP2 DIV MUL PUSH1 0x20 ADD PUSH1 0x40 MLOAD SWAP1 DUP2 ADD PUSH1 0x40 MSTORE DUP1 SWAP3 SWAP2 SWAP1 DUP2 DUP2 MSTORE PUSH1 0x20 ADD DUP3 DUP1 SLOAD PUSH2 0x8CA SWAP1 PUSH2 0x1ECA JUMP JUMPDEST DUP1 ISZERO PUSH2 0x917 JUMPI DUP1 PUSH1 0x1F LT PUSH2 0x8EC JUMPI PUSH2 0x100 DUP1 DUP4 SLOAD DIV MUL DUP4 MSTORE SWAP2 PUSH1 0x20 ADD SWAP2 PUSH2 0x917 JUMP JUMPDEST DUP3 ADD SWAP2 SWAP1 PUSH1 0x0 MSTORE PUSH1 0x20 PUSH1 0x0 KECCAK256 SWAP1 JUMPDEST DUP2 SLOAD DUP2 MSTORE SWAP1 PUSH1 0x1 ADD SWAP1 PUSH1 0x20 ADD DUP1 DUP4 GT PUSH2 0x8FA JUMPI DUP3 SWAP1 SUB PUSH1 0x1F AND DUP3 ADD SWAP2 JUMPDEST POP POP POP PUSH1 0x6 DUP5 ADD SLOAD PUSH1 0x7 DUP6 ADD SLOAD PUSH1 0x8 DUP7 ADD DUP1 SLOAD SWAP6 SWAP7 SWAP3 SWAP6 PUSH1 0xFF DUP1 DUP5 AND SWAP7 POP PUSH2 0x100 SWAP1 SWAP4 DIV SWAP1 SWAP3 AND SWAP4 POP SWAP1 PUSH2 0x94A SWAP1 PUSH2 0x1ECA JUMP JUMPDEST DUP1 PUSH1 0x1F ADD PUSH1 0x20 DUP1 SWAP2 DIV MUL PUSH1 0x20 ADD PUSH1 0x40 MLOAD SWAP1 DUP2 ADD PUSH1 0x40 MSTORE DUP1 SWAP3 SWAP2 SWAP1 DUP2 DUP2 MSTORE PUSH1 0x20 ADD DUP3 DUP1 SLOAD PUSH2 0x976 SWAP1 PUSH2 0x1ECA JUMP JUMPDEST DUP1 ISZERO PUSH2 0x9C3 JUMPI DUP1 PUSH1 0x1F LT PUSH2 0x998 JUMPI PUSH2 0x100 DUP1 DUP4 SLOAD DIV MUL DUP4 MSTORE SWAP2 PUSH1 0x20 ADD SWAP2 PUSH2 0x9C3 JUMP JUMPDEST DUP3 ADD SWAP2 SWAP1 PUSH1 0x0 MSTORE PUSH1 0x20 PUSH1 0x0 KECCAK256 SWAP1 JUMPDEST DUP2 SLOAD DUP2 MSTORE SWAP1 PUSH1 0x1 ADD SWAP1 PUSH1 0x20 ADD DUP1 DUP4 GT PUSH2 0x9A6 JUMPI DUP3 SWAP1 SUB PUSH1 0x1F AND DUP3 ADD SWAP2 JUMPDEST POP POP POP PUSH1 0x9 SWAP1 SWAP4 ADD SLOAD SWAP2 SWAP3 POP POP PUSH1 0x1 PUSH1 0x1 PUSH1 0xA0 SHL SUB AND DUP12 JUMP JUMPDEST PUSH1 0x40 MLOAD PUSH7 0x1CDD1D59195B9D PUSH1 0xCA SHL PUSH1 0x20 DUP3 ADD MSTORE PUSH1 0x0 SWAP1 PUSH1 0x27 ADD PUSH1 0x40 DUP1 MLOAD PUSH1 0x1F NOT DUP2 DUP5 SUB ADD DUP2 MSTORE DUP3 DUP3 MSTORE DUP1 MLOAD PUSH1 0x20 SWAP2 DUP3 ADD KECCAK256 CALLER PUSH1 0x0 SWAP1 DUP2 MSTORE PUSH1 0x4 DUP4 MSTORE SWAP3 SWAP1 SWAP3 KECCAK256 SWAP2 SWAP3 PUSH2 0xA28 SWAP3 SWAP2 ADD PUSH2 0x1F5C JUMP JUMPDEST PUSH1 0x40 MLOAD PUSH1 0x20 DUP2 DUP4 SUB SUB DUP2 MSTORE SWAP1 PUSH1 0x40 MSTORE DUP1 MLOAD SWAP1 PUSH1 0x20 ADD KECCAK256 EQ PUSH2 0xA9C JUMPI PUSH1 0x40 MLOAD PUSH3 0x461BCD PUSH1 0xE5 SHL DUP2 MSTORE PUSH1 0x20 PUSH1 0x4 DUP3 ADD MSTORE PUSH1 0x24 DUP1 DUP3 ADD MSTORE PUSH32 0x4F6E6C792073747564656E74732063616E207375626D69742061737369676E6D PUSH1 0x44 DUP3 ADD MSTORE PUSH4 0x656E7473 PUSH1 0xE0 SHL PUSH1 0x64 DUP3 ADD MSTORE PUSH1 0x84 ADD JUMPDEST PUSH1 0x40 MLOAD DUP1 SWAP2 SUB SWAP1 REVERT JUMPDEST PUSH1 0x1 DUP3 PUSH1 0x40 MLOAD PUSH2 0xAAC SWAP2 SWAP1 PUSH2 0x1FD2 JUMP JUMPDEST SWAP1 DUP2 MSTORE PUSH1 0x40 MLOAD SWAP1 DUP2 SWAP1 SUB PUSH1 0x20 ADD SWAP1 KECCAK256 SLOAD PUSH1 0xFF AND ISZERO PUSH2 0xB1D JUMPI PUSH1 0x40 MLOAD PUSH3 0x461BCD PUSH1 0xE5 SHL DUP2 MSTORE PUSH1 0x20 PUSH1 0x4 DUP3 ADD MSTORE PUSH1 0x28 PUSH1 0x24 DUP3 ADD MSTORE PUSH32 0x41737369676E6D656E7420776974682074686973206861736820616C72656164 PUSH1 0x44 DUP3 ADD MSTORE PUSH8 0x7920657869737473 PUSH1 0xC0 SHL PUSH1 0x64 DUP3 ADD MSTORE PUSH1 0x84 ADD PUSH2 0xA93 JUMP JUMPDEST PUSH1 0x3 DUP1 SLOAD SWAP1 PUSH1 0x0 PUSH2 0xB2D DUP4 PUSH2 0x1F43 JUMP JUMPDEST SWAP1 SWAP2 SSTORE POP POP PUSH1 0x3 SLOAD PUSH1 0x40 DUP1 MLOAD PUSH2 0x160 DUP2 ADD DUP3 MSTORE DUP3 DUP2 MSTORE CALLER PUSH1 0x20 DUP1 DUP4 ADD SWAP2 DUP3 MSTORE DUP3 DUP5 ADD DUP11 DUP2 MSTORE PUSH1 0x60 DUP5 ADD DUP11 SWAP1 MSTORE PUSH1 0x80 DUP5 ADD DUP10 SWAP1 MSTORE PUSH1 0xA0 DUP5 ADD DUP9 SWAP1 MSTORE TIMESTAMP PUSH1 0xC0 DUP6 ADD MSTORE PUSH1 0x0 PUSH1 0xE0 DUP6 ADD DUP2 SWAP1 MSTORE PUSH2 0x100 DUP6 ADD DUP2 SWAP1 MSTORE DUP6 MLOAD DUP1 DUP5 ADD DUP8 MSTORE DUP2 DUP2 MSTORE PUSH2 0x120 DUP7 ADD MSTORE PUSH2 0x140 DUP6 ADD DUP2 SWAP1 MSTORE DUP7 DUP2 MSTORE SWAP2 DUP3 SWAP1 MSTORE SWAP4 SWAP1 KECCAK256 DUP3 MLOAD DUP2 SSTORE SWAP1 MLOAD PUSH1 0x1 DUP3 ADD DUP1 SLOAD PUSH1 0x1 PUSH1 0x1 PUSH1 0xA0 SHL SUB NOT AND PUSH1 0x1 PUSH1 0x1 PUSH1 0xA0 SHL SUB SWAP1 SWAP3 AND SWAP2 SWAP1 SWAP2 OR SWAP1 SSTORE SWAP2 MLOAD SWAP1 SWAP2 SWAP1 PUSH1 0x2 DUP3 ADD SWAP1 PUSH2 0xBDB SWAP1 DUP3 PUSH2 0x203D JUMP JUMPDEST POP PUSH1 0x60 DUP3 ADD MLOAD PUSH1 0x3 DUP3 ADD SWAP1 PUSH2 0xBF0 SWAP1 DUP3 PUSH2 0x203D JUMP JUMPDEST POP PUSH1 0x80 DUP3 ADD MLOAD PUSH1 0x4 DUP3 ADD SWAP1 PUSH2 0xC05 SWAP1 DUP3 PUSH2 0x203D JUMP JUMPDEST POP PUSH1 0xA0 DUP3 ADD MLOAD PUSH1 0x5 DUP3 ADD SWAP1 PUSH2 0xC1A SWAP1 DUP3 PUSH2 0x203D JUMP JUMPDEST POP PUSH1 0xC0 DUP3 ADD MLOAD PUSH1 0x6 DUP3 ADD SSTORE PUSH1 0xE0 DUP3 ADD MLOAD PUSH1 0x7 DUP3 ADD DUP1 SLOAD PUSH2 0x100 DUP1 DUP7 ADD MLOAD PUSH1 0xFF AND MUL PUSH2 0xFF00 NOT SWAP4 ISZERO ISZERO SWAP4 SWAP1 SWAP4 AND PUSH2 0xFFFF NOT SWAP1 SWAP2 AND OR SWAP2 SWAP1 SWAP2 OR SWAP1 SSTORE PUSH2 0x120 DUP3 ADD MLOAD PUSH1 0x8 DUP3 ADD SWAP1 PUSH2 0xC69 SWAP1 DUP3 PUSH2 0x203D JUMP JUMPDEST POP PUSH2 0x140 SWAP2 SWAP1 SWAP2 ADD MLOAD PUSH1 0x9 SWAP1 SWAP2 ADD DUP1 SLOAD PUSH1 0x1 PUSH1 0x1 PUSH1 0xA0 SHL SUB NOT AND PUSH1 0x1 PUSH1 0x1 PUSH1 0xA0 SHL SUB SWAP1 SWAP3 AND SWAP2 SWAP1 SWAP2 OR SWAP1 SSTORE PUSH1 0x40 MLOAD PUSH1 0x1 SWAP1 DUP2 SWAP1 PUSH2 0xCA7 SWAP1 DUP7 SWAP1 PUSH2 0x1FD2 JUMP JUMPDEST SWAP1 DUP2 MSTORE PUSH1 0x40 DUP1 MLOAD PUSH1 0x20 SWAP3 DUP2 SWAP1 SUB DUP4 ADD DUP2 KECCAK256 DUP1 SLOAD PUSH1 0xFF NOT AND SWAP5 ISZERO ISZERO SWAP5 SWAP1 SWAP5 OR SWAP1 SWAP4 SSTORE CALLER PUSH1 0x0 DUP2 DUP2 MSTORE PUSH1 0x2 DUP5 MSTORE SWAP2 DUP3 KECCAK256 DUP1 SLOAD PUSH1 0x1 DUP2 ADD DUP3 SSTORE SWAP1 DUP4 MSTORE SWAP3 SWAP1 SWAP2 KECCAK256 SWAP1 SWAP2 ADD DUP4 SWAP1 SSTORE SWAP1 DUP3 SWAP1 PUSH32 0xA0743D2EBBCF02B554BE8911EE93D65B945B6EB845DDC2588FCD018A553BF238 SWAP1 PUSH2 0xD1C SWAP1 DUP8 SWAP1 TIMESTAMP SWAP1 PUSH2 0x20FD JUMP JUMPDEST PUSH1 0x40 MLOAD DUP1 SWAP2 SUB SWAP1 LOG3 SWAP6 SWAP5 POP POP POP POP POP JUMP JUMPDEST PUSH2 0xD35 PUSH2 0x188F JUMP JUMPDEST PUSH1 0x0 DUP3 DUP2 MSTORE PUSH1 0x20 DUP2 DUP2 MSTORE PUSH1 0x40 SWAP2 DUP3 SWAP1 KECCAK256 DUP3 MLOAD PUSH2 0x160 DUP2 ADD DUP5 MSTORE DUP2 SLOAD DUP2 MSTORE PUSH1 0x1 DUP3 ADD SLOAD PUSH1 0x1 PUSH1 0x1 PUSH1 0xA0 SHL SUB AND SWAP3 DUP2 ADD SWAP3 SWAP1 SWAP3 MSTORE PUSH1 0x2 DUP2 ADD DUP1 SLOAD SWAP3 SWAP4 SWAP2 SWAP3 SWAP2 DUP5 ADD SWAP2 PUSH2 0xD7E SWAP1 PUSH2 0x1ECA JUMP JUMPDEST DUP1 PUSH1 0x1F ADD PUSH1 0x20 DUP1 SWAP2 DIV MUL PUSH1 0x20 ADD PUSH1 0x40 MLOAD SWAP1 DUP2 ADD PUSH1 0x40 MSTORE DUP1 SWAP3 SWAP2 SWAP1 DUP2 DUP2 MSTORE PUSH1 0x20 ADD DUP3 DUP1 SLOAD PUSH2 0xDAA SWAP1 PUSH2 0x1ECA JUMP JUMPDEST DUP1 ISZERO PUSH2 0xDF7 JUMPI DUP1 PUSH1 0x1F LT PUSH2 0xDCC JUMPI PUSH2 0x100 DUP1 DUP4 SLOAD DIV MUL DUP4 MSTORE SWAP2 PUSH1 0x20 ADD SWAP2 PUSH2 0xDF7 JUMP JUMPDEST DUP3 ADD SWAP2 SWAP1 PUSH1 0x0 MSTORE PUSH1 0x20 PUSH1 0x0 KECCAK256 SWAP1 JUMPDEST DUP2 SLOAD DUP2 MSTORE SWAP1 PUSH1 0x1 ADD SWAP1 PUSH1 0x20 ADD DUP1 DUP4 GT PUSH2 0xDDA JUMPI DUP3 SWAP1 SUB PUSH1 0x1F AND DUP3 ADD SWAP2 JUMPDEST POP POP POP POP POP DUP2 MSTORE PUSH1 0x20 ADD PUSH1 0x3 DUP3 ADD DUP1 SLOAD PUSH2 0xE10 SWAP1 PUSH2 0x1ECA JUMP JUMPDEST DUP1 PUSH1 0x1F ADD PUSH1 0x20 DUP1 SWAP2 DIV MUL PUSH1 0x20 ADD PUSH1 0x40 MLOAD SWAP1 DUP2 ADD PUSH1 0x40 MSTORE DUP1 SWAP3 SWAP2 SWAP1 DUP2 DUP2 MSTORE PUSH1 0x20 ADD DUP3 DUP1 SLOAD PUSH2 0xE3C SWAP1 PUSH2 0x1ECA JUMP JUMPDEST DUP1 ISZERO PUSH2 0xE89 JUMPI DUP1 PUSH1 0x1F LT PUSH2 0xE5E JUMPI PUSH2 0x100 DUP1 DUP4 SLOAD DIV MUL DUP4 MSTORE SWAP2 PUSH1 0x20 ADD SWAP2 PUSH2 0xE89 JUMP JUMPDEST DUP3 ADD SWAP2 SWAP1 PUSH1 0x0 MSTORE PUSH1 0x20 PUSH1 0x0 KECCAK256 SWAP1 JUMPDEST DUP2 SLOAD DUP2 MSTORE SWAP1 PUSH1 0x1 ADD SWAP1 PUSH1 0x20 ADD DUP1 DUP4 GT PUSH2 0xE6C JUMPI DUP3 SWAP1 SUB PUSH1 0x1F AND DUP3 ADD SWAP2 JUMPDEST POP POP POP POP POP DUP2 MSTORE PUSH1 0x20 ADD PUSH1 0x4 DUP3 ADD DUP1 SLOAD PUSH2 0xEA2 SWAP1 PUSH2 0x1ECA JUMP JUMPDEST DUP1 PUSH1 0x1F ADD PUSH1 0x20 DUP1 SWAP2 DIV MUL PUSH1 0x20 ADD PUSH1 0x40 MLOAD SWAP1 DUP2 ADD PUSH1 0x40 MSTORE DUP1 SWAP3 SWAP2 SWAP1 DUP2 DUP2 MSTORE PUSH1 0x20 ADD DUP3 DUP1 SLOAD PUSH2 0xECE SWAP1 PUSH2 0x1ECA JUMP JUMPDEST DUP1 ISZERO PUSH2 0xF1B JUMPI DUP1 PUSH1 0x1F LT PUSH2 0xEF0 JUMPI PUSH2 0x100 DUP1 DUP4 SLOAD DIV MUL DUP4 MSTORE SWAP2 PUSH1 0x20 ADD SWAP2 PUSH2 0xF1B JUMP JUMPDEST DUP3 ADD SWAP2 SWAP1 PUSH1 0x0 MSTORE PUSH1 0x20 PUSH1 0x0 KECCAK256 SWAP1 JUMPDEST DUP2 SLOAD DUP2 MSTORE SWAP1 PUSH1 0x1 ADD SWAP1 PUSH1 0x20 ADD DUP1 DUP4 GT PUSH2 0xEFE JUMPI DUP3 SWAP1 SUB PUSH1 0x1F AND DUP3 ADD SWAP2 JUMPDEST POP POP POP POP POP DUP2 MSTORE PUSH1 0x20 ADD PUSH1 0x5 DUP3 ADD DUP1 SLOAD PUSH2 0xF34 SWAP1 PUSH2 0x1ECA JUMP JUMPDEST DUP1 PUSH1 0x1F ADD PUSH1 0x20 DUP1 SWAP2 DIV MUL PUSH1 0x20 ADD PUSH1 0x40 MLOAD SWAP1 DUP2 ADD PUSH1 0x40 MSTORE DUP1 SWAP3 SWAP2 SWAP1 DUP2 DUP2 MSTORE PUSH1 0x20 ADD DUP3 DUP1 SLOAD PUSH2 0xF60 SWAP1 PUSH2 0x1ECA JUMP JUMPDEST DUP1 ISZERO PUSH2 0xFAD JUMPI DUP1 PUSH1 0x1F LT PUSH2 0xF82 JUMPI PUSH2 0x100 DUP1 DUP4 SLOAD DIV MUL DUP4 MSTORE SWAP2 PUSH1 0x20 ADD SWAP2 PUSH2 0xFAD JUMP JUMPDEST DUP3 ADD SWAP2 SWAP1 PUSH1 0x0 MSTORE PUSH1 0x20 PUSH1 0x0 KECCAK256 SWAP1 JUMPDEST DUP2 SLOAD DUP2 MSTORE SWAP1 PUSH1 0x1 ADD SWAP1 PUSH1 0x20 ADD DUP1 DUP4 GT PUSH2 0xF90 JUMPI DUP3 SWAP1 SUB PUSH1 0x1F AND DUP3 ADD SWAP2 JUMPDEST POP POP POP SWAP2 DUP4 MSTORE POP POP PUSH1 0x6 DUP3 ADD SLOAD PUSH1 0x20 DUP3 ADD MSTORE PUSH1 0x7 DUP3 ADD SLOAD PUSH1 0xFF DUP1 DUP3 AND ISZERO ISZERO PUSH1 0x40 DUP5 ADD MSTORE PUSH2 0x100 SWAP1 SWAP2 DIV AND PUSH1 0x60 DUP3 ADD MSTORE PUSH1 0x8 DUP3 ADD DUP1 SLOAD PUSH1 0x80 SWAP1 SWAP3 ADD SWAP2 PUSH2 0xFF1 SWAP1 PUSH2 0x1ECA JUMP JUMPDEST DUP1 PUSH1 0x1F ADD PUSH1 0x20 DUP1 SWAP2 DIV MUL PUSH1 0x20 ADD PUSH1 0x40 MLOAD SWAP1 DUP2 ADD PUSH1 0x40 MSTORE DUP1 SWAP3 SWAP2 SWAP1 DUP2 DUP2 MSTORE PUSH1 0x20 ADD DUP3 DUP1 SLOAD PUSH2 0x101D SWAP1 PUSH2 0x1ECA JUMP JUMPDEST DUP1 ISZERO PUSH2 0x106A JUMPI DUP1 PUSH1 0x1F LT PUSH2 0x103F JUMPI PUSH2 0x100 DUP1 DUP4 SLOAD DIV MUL DUP4 MSTORE SWAP2 PUSH1 0x20 ADD SWAP2 PUSH2 0x106A JUMP JUMPDEST DUP3 ADD SWAP2 SWAP1 PUSH1 0x0 MSTORE PUSH1 0x20 PUSH1 0x0 KECCAK256 SWAP1 JUMPDEST DUP2 SLOAD DUP2 MSTORE SWAP1 PUSH1 0x1 ADD SWAP1 PUSH1 0x20 ADD DUP1 DUP4 GT PUSH2 0x104D JUMPI DUP3 SWAP1 SUB PUSH1 0x1F AND DUP3 ADD SWAP2 JUMPDEST POP POP POP SWAP2 DUP4 MSTORE POP POP PUSH1 0x9 SWAP2 SWAP1 SWAP2 ADD SLOAD PUSH1 0x1 PUSH1 0x1 PUSH1 0xA0 SHL SUB AND PUSH1 0x20 SWAP1 SWAP2 ADD MSTORE SWAP3 SWAP2 POP POP JUMP JUMPDEST PUSH1 0x40 MLOAD PUSH8 0x3632B1BA3AB932B9 PUSH1 0xC1 SHL PUSH1 0x20 DUP3 ADD MSTORE PUSH1 0x28 ADD PUSH1 0x40 DUP1 MLOAD PUSH1 0x1F NOT DUP2 DUP5 SUB ADD DUP2 MSTORE DUP3 DUP3 MSTORE DUP1 MLOAD PUSH1 0x20 SWAP2 DUP3 ADD KECCAK256 CALLER PUSH1 0x0 SWAP1 DUP2 MSTORE PUSH1 0x4 DUP4 MSTORE SWAP3 SWAP1 SWAP3 KECCAK256 SWAP2 SWAP3 PUSH2 0x10D8 SWAP3 SWAP2 ADD PUSH2 0x1F5C JUMP JUMPDEST PUSH1 0x40 MLOAD PUSH1 0x20 DUP2 DUP4 SUB SUB DUP2 MSTORE SWAP1 PUSH1 0x40 MSTORE DUP1 MLOAD SWAP1 PUSH1 0x20 ADD KECCAK256 EQ DUP1 PUSH2 0x1104 JUMPI POP PUSH1 0x5 SLOAD PUSH1 0x1 PUSH1 0x1 PUSH1 0xA0 SHL SUB AND CALLER EQ JUMPDEST PUSH2 0x1167 JUMPI PUSH1 0x40 MLOAD PUSH3 0x461BCD PUSH1 0xE5 SHL DUP2 MSTORE PUSH1 0x20 PUSH1 0x4 DUP3 ADD MSTORE PUSH1 0x2E PUSH1 0x24 DUP3 ADD MSTORE PUSH32 0x4F6E6C79206C65637475726572206F722061646D696E2063616E20706572666F PUSH1 0x44 DUP3 ADD MSTORE PUSH14 0x3936903A3434B99030B1BA34B7B7 PUSH1 0x91 SHL PUSH1 0x64 DUP3 ADD MSTORE PUSH1 0x84 ADD PUSH2 0xA93 JUMP JUMPDEST PUSH1 0x0 DUP4 DUP2 MSTORE PUSH1 0x20 DUP2 SWAP1 MSTORE PUSH1 0x40 DUP2 KECCAK256 SLOAD SWAP1 SUB PUSH2 0x11C4 JUMPI PUSH1 0x40 MLOAD PUSH3 0x461BCD PUSH1 0xE5 SHL DUP2 MSTORE PUSH1 0x20 PUSH1 0x4 DUP3 ADD MSTORE PUSH1 0x19 PUSH1 0x24 DUP3 ADD MSTORE PUSH32 0x41737369676E6D656E7420646F6573206E6F7420657869737400000000000000 PUSH1 0x44 DUP3 ADD MSTORE PUSH1 0x64 ADD PUSH2 0xA93 JUMP JUMPDEST PUSH1 0x0 DUP4 DUP2 MSTORE PUSH1 0x20 DUP2 SWAP1 MSTORE PUSH1 0x40 SWAP1 KECCAK256 PUSH1 0x7 ADD SLOAD PUSH1 0xFF AND ISZERO PUSH2 0x1226 JUMPI PUSH1 0x40 MLOAD PUSH3 0x461BCD PUSH1 0xE5 SHL DUP2 MSTORE PUSH1 0x20 PUSH1 0x4 DUP3 ADD MSTORE PUSH1 0x19 PUSH1 0x24 DUP3 ADD MSTORE PUSH32 0x41737369676E6D656E7420616C72656164792067726164656400000000000000 PUSH1 0x44 DUP3 ADD MSTORE PUSH1 0x64 ADD PUSH2 0xA93 JUMP JUMPDEST PUSH1 0x64 DUP3 PUSH1 0xFF AND GT ISZERO PUSH2 0x127A JUMPI PUSH1 0x40 MLOAD PUSH3 0x461BCD PUSH1 0xE5 SHL DUP2 MSTORE PUSH1 0x20 PUSH1 0x4 DUP3 ADD MSTORE PUSH1 0x1F PUSH1 0x24 DUP3 ADD MSTORE PUSH32 0x4772616465206D757374206265206265747765656E203020616E642031303000 PUSH1 0x44 DUP3 ADD MSTORE PUSH1 0x64 ADD PUSH2 0xA93 JUMP JUMPDEST PUSH1 0x0 DUP4 DUP2 MSTORE PUSH1 0x20 DUP2 SWAP1 MSTORE PUSH1 0x40 SWAP1 KECCAK256 PUSH1 0x7 DUP2 ADD DUP1 SLOAD PUSH1 0xFF DUP6 AND PUSH2 0x100 MUL PUSH2 0xFFFF NOT SWAP1 SWAP2 AND OR PUSH1 0x1 OR SWAP1 SSTORE PUSH1 0x8 ADD PUSH2 0x12B0 DUP3 DUP3 PUSH2 0x203D JUMP JUMPDEST POP PUSH1 0x0 DUP4 DUP2 MSTORE PUSH1 0x20 DUP2 DUP2 MSTORE PUSH1 0x40 SWAP2 DUP3 SWAP1 KECCAK256 PUSH1 0x9 ADD DUP1 SLOAD PUSH1 0x1 PUSH1 0x1 PUSH1 0xA0 SHL SUB NOT AND CALLER SWAP1 DUP2 OR SWAP1 SWAP2 SSTORE SWAP2 MLOAD PUSH1 0xFF DUP6 AND DUP2 MSTORE DUP6 SWAP2 PUSH32 0xA19C26B067D4C81C1A2E0CF64F56CB3BF269862928E406811332CD3C13EED1ED SWAP2 ADD PUSH1 0x40 MLOAD DUP1 SWAP2 SUB SWAP1 LOG3 POP POP POP JUMP JUMPDEST PUSH1 0x4 PUSH1 0x20 MSTORE PUSH1 0x0 SWAP1 DUP2 MSTORE PUSH1 0x40 SWAP1 KECCAK256 DUP1 SLOAD PUSH2 0x132A SWAP1 PUSH2 0x1ECA JUMP JUMPDEST DUP1 PUSH1 0x1F ADD PUSH1 0x20 DUP1 SWAP2 DIV MUL PUSH1 0x20 ADD PUSH1 0x40 MLOAD SWAP1 DUP2 ADD PUSH1 0x40 MSTORE DUP1 SWAP3 SWAP2 SWAP1 DUP2 DUP2 MSTORE PUSH1 0x20 ADD DUP3 DUP1 SLOAD PUSH2 0x1356 SWAP1 PUSH2 0x1ECA JUMP JUMPDEST DUP1 ISZERO PUSH2 0x13A3 JUMPI DUP1 PUSH1 0x1F LT PUSH2 0x1378 JUMPI PUSH2 0x100 DUP1 DUP4 SLOAD DIV MUL DUP4 MSTORE SWAP2 PUSH1 0x20 ADD SWAP2 PUSH2 0x13A3 JUMP JUMPDEST DUP3 ADD SWAP2 SWAP1 PUSH1 0x0 MSTORE PUSH1 0x20 PUSH1 0x0 KECCAK256 SWAP1 JUMPDEST DUP2 SLOAD DUP2 MSTORE SWAP1 PUSH1 0x1 ADD SWAP1 PUSH1 0x20 ADD DUP1 DUP4 GT PUSH2 0x1386 JUMPI DUP3 SWAP1 SUB PUSH1 0x1F AND DUP3 ADD SWAP2 JUMPDEST POP POP POP POP POP DUP2 JUMP JUMPDEST PUSH1 0x0 PUSH1 0x1 DUP3 PUSH1 0x40 MLOAD PUSH2 0x13BD SWAP2 SWAP1 PUSH2 0x1FD2 JUMP JUMPDEST SWAP1 DUP2 MSTORE PUSH1 0x40 MLOAD SWAP1 DUP2 SWAP1 SUB PUSH1 0x20 ADD SWAP1 KECCAK256 SLOAD PUSH1 0xFF AND SWAP3 SWAP2 POP POP JUMP JUMPDEST PUSH1 0x1 PUSH1 0x1 PUSH1 0xA0 SHL SUB DUP2 AND PUSH1 0x0 SWAP1 DUP2 MSTORE PUSH1 0x2 PUSH1 0x20 SWAP1 DUP2 MSTORE PUSH1 0x40 SWAP2 DUP3 SWAP1 KECCAK256 DUP1 SLOAD DUP4 MLOAD DUP2 DUP5 MUL DUP2 ADD DUP5 ADD SWAP1 SWAP5 MSTORE DUP1 DUP5 MSTORE PUSH1 0x60 SWAP4 SWAP3 DUP4 ADD DUP3 DUP3 DUP1 ISZERO PUSH2 0x1436 JUMPI PUSH1 0x20 MUL DUP3 ADD SWAP2 SWAP1 PUSH1 0x0 MSTORE PUSH1 0x20 PUSH1 0x0 KECCAK256 SWAP1 JUMPDEST DUP2 SLOAD DUP2 MSTORE PUSH1 0x20 ADD SWAP1 PUSH1 0x1 ADD SWAP1 DUP1 DUP4 GT PUSH2 0x1422 JUMPI JUMPDEST POP POP POP POP POP SWAP1 POP SWAP2 SWAP1 POP JUMP JUMPDEST PUSH1 0x5 SLOAD PUSH1 0x1 PUSH1 0x1 PUSH1 0xA0 SHL SUB AND CALLER EQ PUSH2 0x14A7 JUMPI PUSH1 0x40 MLOAD PUSH3 0x461BCD PUSH1 0xE5 SHL DUP2 MSTORE PUSH1 0x20 PUSH1 0x4 DUP3 ADD MSTORE PUSH1 0x22 PUSH1 0x24 DUP3 ADD MSTORE PUSH32 0x4F6E6C792061646D696E2063616E20706572666F726D20746869732061637469 PUSH1 0x44 DUP3 ADD MSTORE PUSH2 0x37B7 PUSH1 0xF1 SHL PUSH1 0x64 DUP3 ADD MSTORE PUSH1 0x84 ADD PUSH2 0xA93 JUMP JUMPDEST PUSH1 0x1 PUSH1 0x1 PUSH1 0xA0 SHL SUB DUP3 AND PUSH1 0x0 SWAP1 DUP2 MSTORE PUSH1 0x4 PUSH1 0x20 MSTORE PUSH1 0x40 SWAP1 KECCAK256 PUSH2 0x14C9 DUP3 DUP3 PUSH2 0x203D JUMP JUMPDEST POP DUP2 PUSH1 0x1 PUSH1 0x1 PUSH1 0xA0 SHL SUB AND PUSH32 0x3565795C2FB8842C21347D277937778BBCFE788B5B4F790FC5E408786CBE9C90 DUP3 PUSH1 0x40 MLOAD PUSH2 0x1503 SWAP2 SWAP1 PUSH2 0x1DB1 JUMP JUMPDEST PUSH1 0x40 MLOAD DUP1 SWAP2 SUB SWAP1 LOG2 POP POP JUMP JUMPDEST PUSH1 0x0 DUP2 DUP2 MSTORE PUSH1 0x20 DUP2 DUP2 MSTORE PUSH1 0x40 DUP1 DUP4 KECCAK256 DUP2 MLOAD PUSH2 0x160 DUP2 ADD DUP4 MSTORE DUP2 SLOAD DUP2 MSTORE PUSH1 0x1 DUP3 ADD SLOAD PUSH1 0x1 PUSH1 0x1 PUSH1 0xA0 SHL SUB AND SWAP4 DUP2 ADD SWAP4 SWAP1 SWAP4 MSTORE PUSH1 0x2 DUP2 ADD DUP1 SLOAD PUSH1 0x60 SWAP5 DUP7 SWAP5 DUP6 SWAP5 DUP6 SWAP5 SWAP3 SWAP4 SWAP1 SWAP3 SWAP2 DUP5 ADD SWAP2 SWAP1 PUSH2 0x1561 SWAP1 PUSH2 0x1ECA JUMP JUMPDEST DUP1 PUSH1 0x1F ADD PUSH1 0x20 DUP1 SWAP2 DIV MUL PUSH1 0x20 ADD PUSH1 0x40 MLOAD SWAP1 DUP2 ADD PUSH1 0x40 MSTORE DUP1 SWAP3 SWAP2 SWAP1 DUP2 DUP2 MSTORE PUSH1 0x20 ADD DUP3 DUP1 SLOAD PUSH2 0x158D SWAP1 PUSH2 0x1ECA JUMP JUMPDEST DUP1 ISZERO PUSH2 0x15DA JUMPI DUP1 PUSH1 0x1F LT PUSH2 0x15AF JUMPI PUSH2 0x100 DUP1 DUP4 SLOAD DIV MUL DUP4 MSTORE SWAP2 PUSH1 0x20 ADD SWAP2 PUSH2 0x15DA JUMP JUMPDEST DUP3 ADD SWAP2 SWAP1 PUSH1 0x0 MSTORE PUSH1 0x20 PUSH1 0x0 KECCAK256 SWAP1 JUMPDEST DUP2 SLOAD DUP2 MSTORE SWAP1 PUSH1 0x1 ADD SWAP1 PUSH1 0x20 ADD DUP1 DUP4 GT PUSH2 0x15BD JUMPI DUP3 SWAP1 SUB PUSH1 0x1F AND DUP3 ADD SWAP2 JUMPDEST POP POP POP POP POP DUP2 MSTORE PUSH1 0x20 ADD PUSH1 0x3 DUP3 ADD DUP1 SLOAD PUSH2 0x15F3 SWAP1 PUSH2 0x1ECA JUMP JUMPDEST DUP1 PUSH1 0x1F ADD PUSH1 0x20 DUP1 SWAP2 DIV MUL PUSH1 0x20 ADD PUSH1 0x40 MLOAD SWAP1 DUP2 ADD PUSH1 0x40 MSTORE DUP1 SWAP3 SWAP2 SWAP1 DUP2 DUP2 MSTORE PUSH1 0x20 ADD DUP3 DUP1 SLOAD PUSH2 0x161F SWAP1 PUSH2 0x1ECA JUMP JUMPDEST DUP1 ISZERO PUSH2 0x166C JUMPI DUP1 PUSH1 0x1F LT PUSH2 0x1641 JUMPI PUSH2 0x100 DUP1 DUP4 SLOAD DIV MUL DUP4 MSTORE SWAP2 PUSH1 0x20 ADD SWAP2 PUSH2 0x166C JUMP JUMPDEST DUP3 ADD SWAP2 SWAP1 PUSH1 0x0 MSTORE PUSH1 0x20 PUSH1 0x0 KECCAK256 SWAP1 JUMPDEST DUP2 SLOAD DUP2 MSTORE SWAP1 PUSH1 0x1 ADD SWAP1 PUSH1 0x20 ADD DUP1 DUP4 GT PUSH2 0x164F JUMPI DUP3 SWAP1 SUB PUSH1 0x1F AND DUP3 ADD SWAP2 JUMPDEST POP POP POP POP POP DUP2 MSTORE PUSH1 0x20 ADD PUSH1 0x4 DUP3 ADD DUP1 SLOAD PUSH2 0x1685 SWAP1 PUSH2 0x1ECA JUMP JUMPDEST DUP1 PUSH1 0x1F ADD PUSH1 0x20 DUP1 SWAP2 DIV MUL PUSH1 0x20 ADD PUSH1 0x40 MLOAD SWAP1 DUP2 ADD PUSH1 0x40 MSTORE DUP1 SWAP3 SWAP2 SWAP1 DUP2 DUP2 MSTORE PUSH1 0x20 ADD DUP3 DUP1 SLOAD PUSH2 0x16B1 SWAP1 PUSH2 0x1ECA JUMP JUMPDEST DUP1 ISZERO PUSH2 0x16FE JUMPI DUP1 PUSH1 0x1F LT PUSH2 0x16D3 JUMPI PUSH2 0x100 DUP1 DUP4 SLOAD DIV MUL DUP4 MSTORE SWAP2 PUSH1 0x20 ADD SWAP2 PUSH2 0x16FE JUMP JUMPDEST DUP3 ADD SWAP2 SWAP1 PUSH1 0x0 MSTORE PUSH1 0x20 PUSH1 0x0 KECCAK256 SWAP1 JUMPDEST DUP2 SLOAD DUP2 MSTORE SWAP1 PUSH1 0x1 ADD SWAP1 PUSH1 0x20 ADD DUP1 DUP4 GT PUSH2 0x16E1 JUMPI DUP3 SWAP1 SUB PUSH1 0x1F AND DUP3 ADD SWAP2 JUMPDEST POP POP POP POP POP DUP2 MSTORE PUSH1 0x20 ADD PUSH1 0x5 DUP3 ADD DUP1 SLOAD PUSH2 0x1717 SWAP1 PUSH2 0x1ECA JUMP JUMPDEST DUP1 PUSH1 0x1F ADD PUSH1 0x20 DUP1 SWAP2 DIV MUL PUSH1 0x20 ADD PUSH1 0x40 MLOAD SWAP1 DUP2 ADD PUSH1 0x40 MSTORE DUP1 SWAP3 SWAP2 SWAP1 DUP2 DUP2 MSTORE PUSH1 0x20 ADD DUP3 DUP1 SLOAD PUSH2 0x1743 SWAP1 PUSH2 0x1ECA JUMP JUMPDEST DUP1 ISZERO PUSH2 0x1790 JUMPI DUP1 PUSH1 0x1F LT PUSH2 0x1765 JUMPI PUSH2 0x100 DUP1 DUP4 SLOAD DIV MUL DUP4 MSTORE SWAP2 PUSH1 0x20 ADD SWAP2 PUSH2 0x1790 JUMP JUMPDEST DUP3 ADD SWAP2 SWAP1 PUSH1 0x0 MSTORE PUSH1 0x20 PUSH1 0x0 KECCAK256 SWAP1 JUMPDEST DUP2 SLOAD DUP2 MSTORE SWAP1 PUSH1 0x1 ADD SWAP1 PUSH1 0x20 ADD DUP1 DUP4 GT PUSH2 0x1773 JUMPI DUP3 SWAP1 SUB PUSH1 0x1F AND DUP3 ADD SWAP2 JUMPDEST POP POP POP SWAP2 DUP4 MSTORE POP POP PUSH1 0x6 DUP3 ADD SLOAD PUSH1 0x20 DUP3 ADD MSTORE PUSH1 0x7 DUP3 ADD SLOAD PUSH1 0xFF DUP1 DUP3 AND ISZERO ISZERO PUSH1 0x40 DUP5 ADD MSTORE PUSH2 0x100 SWAP1 SWAP2 DIV AND PUSH1 0x60 DUP3 ADD MSTORE PUSH1 0x8 DUP3 ADD DUP1 SLOAD PUSH1 0x80 SWAP1 SWAP3 ADD SWAP2 PUSH2 0x17D4 SWAP1 PUSH2 0x1ECA JUMP JUMPDEST DUP1 PUSH1 0x1F ADD PUSH1 0x20 DUP1 SWAP2 DIV MUL PUSH1 0x20 ADD PUSH1 0x40 MLOAD SWAP1 DUP2 ADD PUSH1 0x40 MSTORE DUP1 SWAP3 SWAP2 SWAP1 DUP2 DUP2 MSTORE PUSH1 0x20 ADD DUP3 DUP1 SLOAD PUSH2 0x1800 SWAP1 PUSH2 0x1ECA JUMP JUMPDEST DUP1 ISZERO PUSH2 0x184D JUMPI DUP1 PUSH1 0x1F LT PUSH2 0x1822 JUMPI PUSH2 0x100 DUP1 DUP4 SLOAD DIV MUL DUP4 MSTORE SWAP2 PUSH1 0x20 ADD SWAP2 PUSH2 0x184D JUMP JUMPDEST DUP3 ADD SWAP2 SWAP1 PUSH1 0x0 MSTORE PUSH1 0x20 PUSH1 0x0 KECCAK256 SWAP1 JUMPDEST DUP2 SLOAD DUP2 MSTORE SWAP1 PUSH1 0x1 ADD SWAP1 PUSH1 0x20 ADD DUP1 DUP4 GT PUSH2 0x1830 JUMPI DUP3 SWAP1 SUB PUSH1 0x1F AND DUP3 ADD SWAP2 JUMPDEST POP POP POP SWAP2 DUP4 MSTORE POP POP PUSH1 0x9 SWAP2 SWAP1 SWAP2 ADD SLOAD PUSH1 0x1 PUSH1 0x1 PUSH1 0xA0 SHL SUB AND PUSH1 0x20 SWAP2 DUP3 ADD MSTORE DUP2 MLOAD PUSH1 0xA0 DUP4 ADD MLOAD SWAP2 DUP4 ADD MLOAD PUSH1 0xC0 SWAP1 SWAP4 ADD MLOAD SWAP1 ISZERO ISZERO SWAP10 SWAP2 SWAP9 POP SWAP2 SWAP7 POP SWAP1 SWAP5 POP SWAP3 POP POP POP JUMP JUMPDEST PUSH1 0x40 MLOAD DUP1 PUSH2 0x160 ADD PUSH1 0x40 MSTORE DUP1 PUSH1 0x0 DUP2 MSTORE PUSH1 0x20 ADD PUSH1 0x0 PUSH1 0x1 PUSH1 0x1 PUSH1 0xA0 SHL SUB AND DUP2 MSTORE PUSH1 0x20 ADD PUSH1 0x60 DUP2 MSTORE PUSH1 0x20 ADD PUSH1 0x60 DUP2 MSTORE PUSH1 0x20 ADD PUSH1 0x60 DUP2 MSTORE PUSH1 0x20 ADD PUSH1 0x60 DUP2 MSTORE PUSH1 0x20 ADD PUSH1 0x0 DUP2 MSTORE PUSH1 0x20 ADD PUSH1 0x0 ISZERO ISZERO DUP2 MSTORE PUSH1 0x20 ADD PUSH1 0x0 PUSH1 0xFF AND DUP2 MSTORE PUSH1 0x20 ADD PUSH1 0x60 DUP2 MSTORE PUSH1 0x20 ADD PUSH1 0x0 PUSH1 0x1 PUSH1 0x1 PUSH1 0xA0 SHL SUB AND DUP2 MSTORE POP SWAP1 JUMP JUMPDEST DUP1 CALLDATALOAD PUSH1 0x1 PUSH1 0x1 PUSH1 0xA0 SHL SUB DUP2 AND DUP2 EQ PUSH2 0x1917 JUMPI PUSH1 0x0 DUP1 REVERT JUMPDEST SWAP2 SWAP1 POP JUMP JUMPDEST PUSH1 0x0 DUP1 PUSH1 0x40 DUP4 DUP6 SUB SLT ISZERO PUSH2 0x192F JUMPI PUSH1 0x0 DUP1 REVERT JUMPDEST PUSH2 0x1938 DUP4 PUSH2 0x1900 JUMP JUMPDEST SWAP5 PUSH1 0x20 SWAP4 SWAP1 SWAP4 ADD CALLDATALOAD SWAP4 POP POP POP JUMP JUMPDEST PUSH1 0x0 JUMPDEST DUP4 DUP2 LT ISZERO PUSH2 0x1961 JUMPI DUP2 DUP2 ADD MLOAD DUP4 DUP3 ADD MSTORE PUSH1 0x20 ADD PUSH2 0x1949 JUMP JUMPDEST POP POP PUSH1 0x0 SWAP2 ADD MSTORE JUMP JUMPDEST PUSH1 0x0 DUP2 MLOAD DUP1 DUP5 MSTORE PUSH2 0x1982 DUP2 PUSH1 0x20 DUP7 ADD PUSH1 0x20 DUP7 ADD PUSH2 0x1946 JUMP JUMPDEST PUSH1 0x1F ADD PUSH1 0x1F NOT AND SWAP3 SWAP1 SWAP3 ADD PUSH1 0x20 ADD SWAP3 SWAP2 POP POP JUMP JUMPDEST PUSH1 0x0 PUSH2 0x160 DUP3 MLOAD DUP5 MSTORE PUSH1 0x20 DUP4 ADD MLOAD PUSH2 0x19B9 PUSH1 0x20 DUP7 ADD DUP3 PUSH1 0x1 PUSH1 0x1 PUSH1 0xA0 SHL SUB AND SWAP1 MSTORE JUMP JUMPDEST POP PUSH1 0x40 DUP4 ADD MLOAD DUP2 PUSH1 0x40 DUP7 ADD MSTORE PUSH2 0x19D1 DUP3 DUP7 ADD DUP3 PUSH2 0x196A JUMP JUMPDEST SWAP2 POP POP PUSH1 0x60 DUP4 ADD MLOAD DUP5 DUP3 SUB PUSH1 0x60 DUP7 ADD MSTORE PUSH2 0x19EB DUP3 DUP3 PUSH2 0x196A JUMP JUMPDEST SWAP2 POP POP PUSH1 0x80 DUP4 ADD MLOAD DUP5 DUP3 SUB PUSH1 0x80 DUP7 ADD MSTORE PUSH2 0x1A05 DUP3 DUP3 PUSH2 0x196A JUMP JUMPDEST SWAP2 POP POP PUSH1 0xA0 DUP4 ADD MLOAD DUP5 DUP3 SUB PUSH1 0xA0 DUP7 ADD MSTORE PUSH2 0x1A1F DUP3 DUP3 PUSH2 0x196A JUMP JUMPDEST SWAP2 POP POP PUSH1 0xC0 DUP4 ADD MLOAD PUSH1 0xC0 DUP6 ADD MSTORE PUSH1 0xE0 DUP4 ADD MLOAD PUSH2 0x1A3F PUSH1 0xE0 DUP7 ADD DUP3 ISZERO ISZERO SWAP1 MSTORE JUMP JUMPDEST POP PUSH2 0x100 DUP4 DUP2 ADD MLOAD PUSH1 0xFF AND SWAP1 DUP6 ADD MSTORE PUSH2 0x120 DUP1 DUP5 ADD MLOAD DUP6 DUP4 SUB DUP3 DUP8 ADD MSTORE PUSH2 0x1A66 DUP4 DUP3 PUSH2 0x196A JUMP JUMPDEST SWAP3 POP POP POP PUSH2 0x140 DUP1 DUP5 ADD MLOAD PUSH2 0x1A85 DUP3 DUP8 ADD DUP3 PUSH1 0x1 PUSH1 0x1 PUSH1 0xA0 SHL SUB AND SWAP1 MSTORE JUMP JUMPDEST POP SWAP1 SWAP5 SWAP4 POP POP POP POP JUMP JUMPDEST PUSH1 0x0 PUSH1 0x20 DUP1 DUP4 ADD DUP2 DUP5 MSTORE DUP1 DUP6 MLOAD DUP1 DUP4 MSTORE PUSH1 0x40 DUP7 ADD SWAP2 POP PUSH1 0x40 DUP2 PUSH1 0x5 SHL DUP8 ADD ADD SWAP3 POP DUP4 DUP8 ADD PUSH1 0x0 JUMPDEST DUP3 DUP2 LT ISZERO PUSH2 0x1AE4 JUMPI PUSH1 0x3F NOT DUP9 DUP7 SUB ADD DUP5 MSTORE PUSH2 0x1AD2 DUP6 DUP4 MLOAD PUSH2 0x1996 JUMP JUMPDEST SWAP5 POP SWAP3 DUP6 ADD SWAP3 SWAP1 DUP6 ADD SWAP1 PUSH1 0x1 ADD PUSH2 0x1AB6 JUMP JUMPDEST POP SWAP3 SWAP8 SWAP7 POP POP POP POP POP POP POP JUMP JUMPDEST PUSH1 0x0 PUSH1 0x20 DUP3 DUP5 SUB SLT ISZERO PUSH2 0x1B03 JUMPI PUSH1 0x0 DUP1 REVERT JUMPDEST POP CALLDATALOAD SWAP2 SWAP1 POP JUMP JUMPDEST DUP12 DUP2 MSTORE PUSH1 0x1 PUSH1 0x1 PUSH1 0xA0 SHL SUB DUP12 AND PUSH1 0x20 DUP3 ADD MSTORE PUSH2 0x160 PUSH1 0x40 DUP3 ADD DUP2 SWAP1 MSTORE PUSH1 0x0 SWAP1 PUSH2 0x1B35 DUP4 DUP3 ADD DUP14 PUSH2 0x196A JUMP JUMPDEST SWAP1 POP DUP3 DUP2 SUB PUSH1 0x60 DUP5 ADD MSTORE PUSH2 0x1B49 DUP2 DUP13 PUSH2 0x196A JUMP JUMPDEST SWAP1 POP DUP3 DUP2 SUB PUSH1 0x80 DUP5 ADD MSTORE PUSH2 0x1B5D DUP2 DUP12 PUSH2 0x196A JUMP JUMPDEST SWAP1 POP DUP3 DUP2 SUB PUSH1 0xA0 DUP5 ADD MSTORE PUSH2 0x1B71 DUP2 DUP11 PUSH2 0x196A JUMP JUMPDEST SWAP1 POP DUP8 PUSH1 0xC0 DUP5 ADD MSTORE DUP7 ISZERO ISZERO PUSH1 0xE0 DUP5 ADD MSTORE PUSH2 0x1B91 PUSH2 0x100 DUP5 ADD DUP8 PUSH1 0xFF AND SWAP1 MSTORE JUMP JUMPDEST DUP3 DUP2 SUB PUSH2 0x120 DUP5 ADD MSTORE PUSH2 0x1BA4 DUP2 DUP7 PUSH2 0x196A JUMP JUMPDEST SWAP2 POP POP PUSH2 0x1BBD PUSH2 0x140 DUP4 ADD DUP5 PUSH1 0x1 PUSH1 0x1 PUSH1 0xA0 SHL SUB AND SWAP1 MSTORE JUMP JUMPDEST SWAP13 SWAP12 POP POP POP POP POP POP POP POP POP POP POP POP JUMP JUMPDEST PUSH4 0x4E487B71 PUSH1 0xE0 SHL PUSH1 0x0 MSTORE PUSH1 0x41 PUSH1 0x4 MSTORE PUSH1 0x24 PUSH1 0x0 REVERT JUMPDEST PUSH1 0x0 DUP3 PUSH1 0x1F DUP4 ADD SLT PUSH2 0x1BF4 JUMPI PUSH1 0x0 DUP1 REVERT JUMPDEST DUP2 CALLDATALOAD PUSH8 0xFFFFFFFFFFFFFFFF DUP1 DUP3 GT ISZERO PUSH2 0x1C0F JUMPI PUSH2 0x1C0F PUSH2 0x1BCD JUMP JUMPDEST PUSH1 0x40 MLOAD PUSH1 0x1F DUP4 ADD PUSH1 0x1F NOT SWAP1 DUP2 AND PUSH1 0x3F ADD AND DUP2 ADD SWAP1 DUP3 DUP3 GT DUP2 DUP4 LT OR ISZERO PUSH2 0x1C37 JUMPI PUSH2 0x1C37 PUSH2 0x1BCD JUMP JUMPDEST DUP2 PUSH1 0x40 MSTORE DUP4 DUP2 MSTORE DUP7 PUSH1 0x20 DUP6 DUP9 ADD ADD GT ISZERO PUSH2 0x1C50 JUMPI PUSH1 0x0 DUP1 REVERT JUMPDEST DUP4 PUSH1 0x20 DUP8 ADD PUSH1 0x20 DUP4 ADD CALLDATACOPY PUSH1 0x0 PUSH1 0x20 DUP6 DUP4 ADD ADD MSTORE DUP1 SWAP5 POP POP POP POP POP SWAP3 SWAP2 POP POP JUMP JUMPDEST PUSH1 0x0 DUP1 PUSH1 0x0 DUP1 PUSH1 0x80 DUP6 DUP8 SUB SLT ISZERO PUSH2 0x1C86 JUMPI PUSH1 0x0 DUP1 REVERT JUMPDEST DUP5 CALLDATALOAD PUSH8 0xFFFFFFFFFFFFFFFF DUP1 DUP3 GT ISZERO PUSH2 0x1C9E JUMPI PUSH1 0x0 DUP1 REVERT JUMPDEST PUSH2 0x1CAA DUP9 DUP4 DUP10 ADD PUSH2 0x1BE3 JUMP JUMPDEST SWAP6 POP PUSH1 0x20 DUP8 ADD CALLDATALOAD SWAP2 POP DUP1 DUP3 GT ISZERO PUSH2 0x1CC0 JUMPI PUSH1 0x0 DUP1 REVERT JUMPDEST PUSH2 0x1CCC DUP9 DUP4 DUP10 ADD PUSH2 0x1BE3 JUMP JUMPDEST SWAP5 POP PUSH1 0x40 DUP8 ADD CALLDATALOAD SWAP2 POP DUP1 DUP3 GT ISZERO PUSH2 0x1CE2 JUMPI PUSH1 0x0 DUP1 REVERT JUMPDEST PUSH2 0x1CEE DUP9 DUP4 DUP10 ADD PUSH2 0x1BE3 JUMP JUMPDEST SWAP4 POP PUSH1 0x60 DUP8 ADD CALLDATALOAD SWAP2 POP DUP1 DUP3 GT ISZERO PUSH2 0x1D04 JUMPI PUSH1 0x0 DUP1 REVERT JUMPDEST POP PUSH2 0x1D11 DUP8 DUP3 DUP9 ADD PUSH2 0x1BE3 JUMP JUMPDEST SWAP2 POP POP SWAP3 SWAP6 SWAP2 SWAP5 POP SWAP3 POP JUMP JUMPDEST PUSH1 0x20 DUP2 MSTORE PUSH1 0x0 PUSH2 0x1D30 PUSH1 0x20 DUP4 ADD DUP5 PUSH2 0x1996 JUMP JUMPDEST SWAP4 SWAP3 POP POP POP JUMP JUMPDEST PUSH1 0x0 DUP1 PUSH1 0x0 PUSH1 0x60 DUP5 DUP7 SUB SLT ISZERO PUSH2 0x1D4C JUMPI PUSH1 0x0 DUP1 REVERT JUMPDEST DUP4 CALLDATALOAD SWAP3 POP PUSH1 0x20 DUP5 ADD CALLDATALOAD PUSH1 0xFF DUP2 AND DUP2 EQ PUSH2 0x1D64 JUMPI PUSH1 0x0 DUP1 REVERT JUMPDEST SWAP2 POP PUSH1 0x40 DUP5 ADD CALLDATALOAD PUSH8 0xFFFFFFFFFFFFFFFF DUP2 GT ISZERO PUSH2 0x1D80 JUMPI PUSH1 0x0 DUP1 REVERT JUMPDEST PUSH2 0x1D8C DUP7 DUP3 DUP8 ADD PUSH2 0x1BE3 JUMP JUMPDEST SWAP2 POP POP SWAP3 POP SWAP3 POP SWAP3 JUMP JUMPDEST PUSH1 0x0 PUSH1 0x20 DUP3 DUP5 SUB SLT ISZERO PUSH2 0x1DA8 JUMPI PUSH1 0x0 DUP1 REVERT JUMPDEST PUSH2 0x1D30 DUP3 PUSH2 0x1900 JUMP JUMPDEST PUSH1 0x20 DUP2 MSTORE PUSH1 0x0 PUSH2 0x1D30 PUSH1 0x20 DUP4 ADD DUP5 PUSH2 0x196A JUMP JUMPDEST PUSH1 0x0 PUSH1 0x20 DUP3 DUP5 SUB SLT ISZERO PUSH2 0x1DD6 JUMPI PUSH1 0x0 DUP1 REVERT JUMPDEST DUP2 CALLDATALOAD PUSH8 0xFFFFFFFFFFFFFFFF DUP2 GT ISZERO PUSH2 0x1DED JUMPI PUSH1 0x0 DUP1 REVERT JUMPDEST PUSH2 0x1DF9 DUP5 DUP3 DUP6 ADD PUSH2 0x1BE3 JUMP JUMPDEST SWAP5 SWAP4 POP POP POP POP JUMP JUMPDEST PUSH1 0x20 DUP1 DUP3 MSTORE DUP3 MLOAD DUP3 DUP3 ADD DUP2 SWAP1 MSTORE PUSH1 0x0 SWAP2 SWAP1 DUP5 DUP3 ADD SWAP1 PUSH1 0x40 DUP6 ADD SWAP1 DUP5 JUMPDEST DUP2 DUP2 LT ISZERO PUSH2 0x1E39 JUMPI DUP4 MLOAD DUP4 MSTORE SWAP3 DUP5 ADD SWAP3 SWAP2 DUP5 ADD SWAP2 PUSH1 0x1 ADD PUSH2 0x1E1D JUMP JUMPDEST POP SWAP1 SWAP7 SWAP6 POP POP POP POP POP POP JUMP JUMPDEST PUSH1 0x0 DUP1 PUSH1 0x40 DUP4 DUP6 SUB SLT ISZERO PUSH2 0x1E58 JUMPI PUSH1 0x0 DUP1 REVERT JUMPDEST PUSH2 0x1E61 DUP4 PUSH2 0x1900 JUMP JUMPDEST SWAP2 POP PUSH1 0x20 DUP4 ADD CALLDATALOAD PUSH8 0xFFFFFFFFFFFFFFFF DUP2 GT ISZERO PUSH2 0x1E7D JUMPI PUSH1 0x0 DUP1 REVERT JUMPDEST PUSH2 0x1E89 DUP6 DUP3 DUP7 ADD PUSH2 0x1BE3 JUMP JUMPDEST SWAP2 POP POP SWAP3 POP SWAP3 SWAP1 POP JUMP JUMPDEST DUP5 ISZERO ISZERO DUP2 MSTORE PUSH1 0x80 PUSH1 0x20 DUP3 ADD MSTORE PUSH1 0x0 PUSH2 0x1EAE PUSH1 0x80 DUP4 ADD DUP7 PUSH2 0x196A JUMP JUMPDEST PUSH1 0x1 PUSH1 0x1 PUSH1 0xA0 SHL SUB SWAP5 SWAP1 SWAP5 AND PUSH1 0x40 DUP4 ADD MSTORE POP PUSH1 0x60 ADD MSTORE SWAP3 SWAP2 POP POP JUMP JUMPDEST PUSH1 0x1 DUP2 DUP2 SHR SWAP1 DUP3 AND DUP1 PUSH2 0x1EDE JUMPI PUSH1 0x7F DUP3 AND SWAP2 POP JUMPDEST PUSH1 0x20 DUP3 LT DUP2 SUB PUSH2 0x6BC JUMPI PUSH4 0x4E487B71 PUSH1 0xE0 SHL PUSH1 0x0 MSTORE PUSH1 0x22 PUSH1 0x4 MSTORE PUSH1 0x24 PUSH1 0x0 REVERT JUMPDEST PUSH4 0x4E487B71 PUSH1 0xE0 SHL PUSH1 0x0 MSTORE PUSH1 0x11 PUSH1 0x4 MSTORE PUSH1 0x24 PUSH1 0x0 REVERT JUMPDEST DUP2 DUP2 SUB DUP2 DUP2 GT ISZERO PUSH2 0x1F27 JUMPI PUSH2 0x1F27 PUSH2 0x1EFE JUMP JUMPDEST SWAP3 SWAP2 POP POP JUMP JUMPDEST PUSH4 0x4E487B71 PUSH1 0xE0 SHL PUSH1 0x0 MSTORE PUSH1 0x32 PUSH1 0x4 MSTORE PUSH1 0x24 PUSH1 0x0 REVERT JUMPDEST PUSH1 0x0 PUSH1 0x1 DUP3 ADD PUSH2 0x1F55 JUMPI PUSH2 0x1F55 PUSH2 0x1EFE JUMP JUMPDEST POP PUSH1 0x1 ADD SWAP1 JUMP JUMPDEST PUSH1 0x0 DUP1 DUP4 SLOAD PUSH2 0x1F6A DUP2 PUSH2 0x1ECA JUMP JUMPDEST PUSH1 0x1 DUP3 DUP2 AND DUP1 ISZERO PUSH2 0x1F82 JUMPI PUSH1 0x1 DUP2 EQ PUSH2 0x1F97 JUMPI PUSH2 0x1FC6 JUMP JUMPDEST PUSH1 0xFF NOT DUP5 AND DUP8 MSTORE DUP3 ISZERO ISZERO DUP4 MUL DUP8 ADD SWAP5 POP PUSH2 0x1FC6 JUMP JUMPDEST DUP8 PUSH1 0x0 MSTORE PUSH1 0x20 DUP1 PUSH1 0x0 KECCAK256 PUSH1 0x0 JUMPDEST DUP6 DUP2 LT ISZERO PUSH2 0x1FBD JUMPI DUP2 SLOAD DUP11 DUP3 ADD MSTORE SWAP1 DUP5 ADD SWAP1 DUP3 ADD PUSH2 0x1FA4 JUMP JUMPDEST POP POP POP DUP3 DUP8 ADD SWAP5 POP JUMPDEST POP SWAP3 SWAP7 SWAP6 POP POP POP POP POP POP JUMP JUMPDEST PUSH1 0x0 DUP3 MLOAD PUSH2 0x1FE4 DUP2 DUP5 PUSH1 0x20 DUP8 ADD PUSH2 0x1946 JUMP JUMPDEST SWAP2 SWAP1 SWAP2 ADD SWAP3 SWAP2 POP POP JUMP JUMPDEST PUSH1 0x1F DUP3 GT ISZERO PUSH2 0x2038 JUMPI PUSH1 0x0 DUP2 DUP2 MSTORE PUSH1 0x20 DUP2 KECCAK256 PUSH1 0x1F DUP6 ADD PUSH1 0x5 SHR DUP2 ADD PUSH1 0x20 DUP7 LT ISZERO PUSH2 0x2015 JUMPI POP DUP1 JUMPDEST PUSH1 0x1F DUP6 ADD PUSH1 0x5 SHR DUP3 ADD SWAP2 POP JUMPDEST DUP2 DUP2 LT ISZERO PUSH2 0x2034 JUMPI DUP3 DUP2 SSTORE PUSH1 0x1 ADD PUSH2 0x2021 JUMP JUMPDEST POP POP POP JUMPDEST POP POP POP JUMP JUMPDEST DUP2 MLOAD PUSH8 0xFFFFFFFFFFFFFFFF DUP2 GT ISZERO PUSH2 0x2057 JUMPI PUSH2 0x2057 PUSH2 0x1BCD JUMP JUMPDEST PUSH2 0x206B DUP2 PUSH2 0x2065 DUP5 SLOAD PUSH2 0x1ECA JUMP JUMPDEST DUP5 PUSH2 0x1FEE JUMP JUMPDEST PUSH1 0x20 DUP1 PUSH1 0x1F DUP4 GT PUSH1 0x1 DUP2 EQ PUSH2 0x20A0 JUMPI PUSH1 0x0 DUP5 ISZERO PUSH2 0x2088 JUMPI POP DUP6 DUP4 ADD MLOAD JUMPDEST PUSH1 0x0 NOT PUSH1 0x3 DUP7 SWAP1 SHL SHR NOT AND PUSH1 0x1 DUP6 SWAP1 SHL OR DUP6 SSTORE PUSH2 0x2034 JUMP JUMPDEST PUSH1 0x0 DUP6 DUP2 MSTORE PUSH1 0x20 DUP2 KECCAK256 PUSH1 0x1F NOT DUP7 AND SWAP2 JUMPDEST DUP3 DUP2 LT ISZERO PUSH2 0x20CF JUMPI DUP9 DUP7 ADD MLOAD DUP3 SSTORE SWAP5 DUP5 ADD SWAP5 PUSH1 0x1 SWAP1 SWAP2 ADD SWAP1 DUP5 ADD PUSH2 0x20B0 JUMP JUMPDEST POP DUP6 DUP3 LT ISZERO PUSH2 0x20ED JUMPI DUP8 DUP6 ADD MLOAD PUSH1 0x0 NOT PUSH1 0x3 DUP9 SWAP1 SHL PUSH1 0xF8 AND SHR NOT AND DUP2 SSTORE JUMPDEST POP POP POP POP POP PUSH1 0x1 SWAP1 DUP2 SHL ADD SWAP1 SSTORE POP JUMP JUMPDEST PUSH1 0x40 DUP2 MSTORE PUSH1 0x0 PUSH2 0x2110 PUSH1 0x40 DUP4 ADD DUP6 PUSH2 0x196A JUMP JUMPDEST SWAP1 POP DUP3 PUSH1 0x20 DUP4 ADD MSTORE SWAP4 SWAP3 POP POP POP JUMP INVALID LOG2 PUSH5 0x6970667358 0x22 SLT KECCAK256 EXTCODEHASH 0xA5 0xE9 CALLVALUE 0xD4 LOG2 CALLDATASIZE CALL NOT PUSH24 0x5F3762BC9D7A7066E9580D06B1B88676172E50C9638D6473 PUSH16 0x6C634300081300330000000000000000 "},"methodIdentifiers":{"admin()":"f851a440","assignRole(address,string)":"b7dfcbee","assignmentCounter()":"3d788f43","assignments(uint256)":"4e50c75c","checkDuplicateHash(string)":"82af01d3","getAllAssignments()":"0cf1dbc8","getAssignment(uint256)":"5e387905","getStudentAssignments(address)":"839450fd","gradeAssignment(uint256,uint8,string)":"6a88b566","hashExists(string)":"9871e510","studentAssignments(address,uint256)":"0ba146b1","submitAssignment(string,string,string,string)":"503631d1","userRoles(address)":"74d5e100","verifyAssignment(uint256)":"fd5a693c"}}}}}