{
  "_format": "hh-sol-artifact-1",
  "contractName": "AssignmentStorage",
  "sourceName": "contracts/AssignmentStorage.sol",
  "abi": [
    {
      "inputs": [],
      "stateMutability": "nonpayable",
      "type": "constructor"
    },
    {
      "anonymous": false,
      "inputs": [
        {
          "indexed": true,
          "internalType": "uint256",
          "name": "assignmentId",
          "type": "uint256"
        },
        {
          "indexed": true,
          "internalType": "address",
          "name": "gradedBy",
          "type": "address"
        },
        {
          "indexed": false,
          "internalType": "uint8",
          "name": "grade",
          "type": "uint8"
        }
      ],
      "name": "AssignmentGraded",
      "type": "event"
    },
    {
      "anonymous": false,
      "inputs": [
        {
          "indexed": true,
          "internalType": "uint256",
          "name": "assignmentId",
          "type": "uint256"
        },
        {
          "indexed": true,
          "internalType": "address",
          "name": "student",
          "type": "address"
        },
        {
          "indexed": false,
          "internalType": "string",
          "name": "fileHash",
          "type": "string"
        },
        {
          "indexed": false,
          "internalType": "uint256",
          "name": "timestamp",
          "type": "uint256"
        }
      ],
      "name": "AssignmentSubmitted",
      "type": "event"
    },
    {
      "anonymous": false,
      "inputs": [
        {
          "indexed": true,
          "internalType": "address",
          "name": "user",
          "type": "address"
        },
        {
          "indexed": false,
          "internalType": "string",
          "name": "role",
          "type": "string"
        }
      ],
      "name": "RoleAssigned",
      "type": "event"
    },
    {
      "inputs": [],
      "name": "admin",
      "outputs": [
        {
          "internalType": "address",
          "name": "",
          "type": "address"
        }
      ],
      "stateMutability": "view",
      "type": "function"
    },
    {
      "inputs": [
        {
          "internalType": "address",
          "name": "user",
          "type": "address"
        },
        {
          "internalType": "string",
          "name": "role",
          "type": "string"
        }
      ],
      "name": "assignRole",
      "outputs": [],
      "stateMutability": "nonpayable",
      "type": "function"
    },
    {
      "inputs": [],
      "name": "assignmentCounter",
      "outputs": [
        {
          "internalType": "uint256",
          "name": "",
          "type": "uint256"
        }
      ],
      "stateMutability": "view",
      "type": "function"
    },
    {
      "inputs": [
        {
          "internalType": "uint256",
          "name": "",
          "type": "uint256"
        }
      ],
      "name": "assignments",
      "outputs": [
        {
          "internalType": "uint256",
          "name": "id",
          "type": "uint256"
        },
        {
          "internalType": "address",
          "name": "student",
          "type": "address"
        },
        {
          "internalType": "string",
          "name": "studentName",
          "type": "string"
        },
        {
          "internalType": "string",
          "name": "title",
          "type": "string"
        },
        {
          "internalType": "string",
          "name": "filename",
          "type": "string"
        },
        {
          "internalType": "string",
          "name": "fileHash",
          "type": "string"
        },
        {
          "internalType": "uint256",
          "name": "timestamp",
          "type": "uint256"
        },
        {
          "internalType": "bool",
          "name": "isGraded",
          "type": "bool"
        },
        {
          "internalType": "uint8",
          "name": "grade",
          "type": "uint8"
        },
        {
          "internalType": "string",
          "name": "feedback",
          "type": "string"
        },
        {
          "internalType": "address",
          "name": "gradedBy",
          "type": "address"
        }
      ],
      "stateMutability": "view",
      "type": "function"
    },
    {
      "inputs": [
        {
          "internalType": "string",
          "name": "fileHash",
          "type": "string"
        }
      ],
      "name": "checkDuplicateHash",
      "outputs": [
        {
          "internalType": "bool",
          "name": "",
          "type": "bool"
        }
      ],
      "stateMutability": "view",
      "type": "function"
    },
    {
      "inputs": [],
      "name": "getAllAssignments",
      "outputs": [
        {
          "components": [
            {
              "internalType": "uint256",
              "name": "id",
              "type": "uint256"
            },
            {
              "internalType": "address",
              "name": "student",
              "type": "address"
            },
            {
              "internalType": "string",
              "name": "studentName",
              "type": "string"
            },
            {
              "internalType": "string",
              "name": "title",
              "type": "string"
            },
            {
              "internalType": "string",
              "name": "filename",
              "type": "string"
            },
            {
              "internalType": "string",
              "name": "fileHash",
              "type": "string"
            },
            {
              "internalType": "uint256",
              "name": "timestamp",
              "type": "uint256"
            },
            {
              "internalType": "bool",
              "name": "isGraded",
              "type": "bool"
            },
            {
              "internalType": "uint8",
              "name": "grade",
              "type": "uint8"
            },
            {
              "internalType": "string",
              "name": "feedback",
              "type": "string"
            },
            {
              "internalType": "address",
              "name": "gradedBy",
              "type": "address"
            }
          ],
          "internalType": "struct AssignmentStorage.Assignment[]",
          "name": "",
          "type": "tuple[]"
        }
      ],
      "stateMutability": "view",
      "type": "function"
    },
    {
      "inputs": [
        {
          "internalType": "uint256",
          "name": "assignmentId",
          "type": "uint256"
        }
      ],
      "name": "getAssignment",
      "outputs": [
        {
          "components": [
            {
              "internalType": "uint256",
              "name": "id",
              "type": "uint256"
            },
            {
              "internalType": "address",
              "name": "student",
              "type": "address"
            },
            {
              "internalType": "string",
              "name": "studentName",
              "type": "string"
            },
            {
              "internalType": "string",
              "name": "title",
              "type": "string"
            },
            {
              "internalType": "string",
              "name": "filename",
              "type": "string"
            },
            {
              "internalType": "string",
              "name": "fileHash",
              "type": "string"
            },
            {
              "internalType": "uint256",
              "name": "timestamp",
              "type": "uint256"
            },
            {
              "internalType": "bool",
              "name": "isGraded",
              "type": "bool"
            },
            {
              "internalType": "uint8",
              "name": "grade",
              "type": "uint8"
            },
            {
              "internalType": "string",
              "name": "feedback",
              "type": "string"
            },
            {
              "internalType": "address",
              "name": "gradedBy",
              "type": "address"
            }
          ],
          "internalType": "struct AssignmentStorage.Assignment",
          "name": "",
          "type": "tuple"
        }
      ],
      "stateMutability": "view",
      "type": "function"
    },
    {
      "inputs": [
        {
          "internalType": "address",
          "name": "student",
          "type": "address"
        }
      ],
      "name": "getStudentAssignments",
      "outputs": [
        {
          "internalType": "uint256[]",
          "name": "",
          "type": "uint256[]"
        }
      ],
      "stateMutability": "view",
      "type": "function"
    },
    {
      "inputs": [
        {
          "internalType": "uint256",
          "name": "assignmentId",
          "type": "uint256"
        },
        {
          "internalType": "uint8",
          "name": "grade",
          "type": "uint8"
        },
        {
          "internalType": "string",
          "name": "feedback",
          "type": "string"
        }
      ],
      "name": "gradeAssignment",
      "outputs": [],
      "stateMutability": "nonpayable",
      "type": "function"
    },
    {
      "inputs": [
        {
          "internalType": "string",
          "name": "",
          "type": "string"
        }
      ],
      "name": "hashExists",
      "outputs": [
        {
          "internalType": "bool",
          "name": "",
          "type": "bool"
        }
      ],
      "stateMutability": "view",
      "type": "function"
    },
    {
      "inputs": [
        {
          "internalType": "address",
          "name": "",
          "type": "address"
        },
        {
          "internalType": "uint256",
          "name": "",
          "type": "uint256"
        }
      ],
      "name": "studentAssignments",
      "outputs": [
        {
          "internalType": "uint256",
          "name": "",
          "type": "uint256"
        }
      ],
      "stateMutability": "view",
      "type": "function"
    },
    {
      "inputs": [
        {
          "internalType": "string",
          "name": "studentName",
          "type": "string"
        },
        {
          "internalType": "string",
          "name": "title",
          "type": "string"
        },
        {
          "internalType": "string",
          "name": "filename",
          "type": "string"
        },
        {
          "internalType": "string",
          "name": "fileHash",
          "type": "string"
        }
      ],
      "name": "submitAssignment",
      "outputs": [
        {
          "internalType": "uint256",
          "name": "",
          "type": "uint256"
        }
      ],
      "stateMutability": "nonpayable",
      "type": "function"
    },
    {
      "inputs": [
        {
          "internalType": "address",
          "name": "",
          "type": "address"
        }
      ],
      "name": "userRoles",
      "outputs": [
        {
          "internalType": "string",
          "name": "",
          "type": "string"
        }
      ],
      "stateMutability": "view",
      "type": "function"
    },
    {
      "inputs": [
        {
          "internalType": "uint256",
          "name": "assignmentId",
          "type": "uint256"
        }
      ],
      "name": "verifyAssignment",
      "outputs": [
        {
          "internalType": "bool",
          "name": "exists",
          "type": "bool"
        },
        {
          "internalType": "string",
          "name": "fileHash",
          "type": "string"
        },
        {
          "internalType": "address",
          "name": "student",
          "type": "address"
        },
        {
          "internalType": "uint256",
          "name": "timestamp",
          "type": "uint256"
        }
      ],
      "stateMutability": "view",
      "type": "function"
    }
  ],
  "bytecode": "0x60806040523480156200001157600080fd5b50600580546001600160a01b0319163390811782556040805180820182529283526430b236b4b760d91b6020808501919091526000928352600490529020906200005c90826200010d565b506000600355620001d9565b634e487b7160e01b600052604160045260246000fd5b600181811c908216806200009357607f821691505b602082108103620000b457634e487b7160e01b600052602260045260246000fd5b50919050565b601f8211156200010857600081815260208120601f850160051c81016020861015620000e35750805b601f850160051c820191505b818110156200010457828155600101620000ef565b5050505b505050565b81516001600160401b0381111562000129576200012962000068565b62000141816200013a84546200007e565b84620000ba565b602080601f831160018114620001795760008415620001605750858301515b600019600386901b1c1916600185901b17855562000104565b600085815260208120601f198616915b82811015620001aa5788860151825594840194600190910190840162000189565b5085821015620001c95787850151600019600388901b60f8161c191681555b5050505050600190811b01905550565b61215580620001e96000396000f3fe608060405234801561001057600080fd5b50600436106100ea5760003560e01c806374d5e1001161008c5780639871e510116100665780639871e51014610208578063b7dfcbee14610236578063f851a44014610249578063fd5a693c1461027457600080fd5b806374d5e100146101a557806382af01d3146101c5578063839450fd146101e857600080fd5b80634e50c75c116100c85780634e50c75c14610133578063503631d11461015d5780635e387905146101705780636a88b5661461019057600080fd5b80630ba146b1146100ef5780630cf1dbc8146101155780633d788f431461012a575b600080fd5b6101026100fd36600461191c565b610297565b6040519081526020015b60405180910390f35b61011d6102c8565b60405161010c9190611a8f565b61010260035481565b610146610141366004611af1565b6106c2565b60405161010c9b9a99989796959493929190611b0a565b61010261016b366004611c70565b6109dc565b61018361017e366004611af1565b610d2d565b60405161010c9190611d1d565b6101a361019e366004611d37565b61108e565b005b6101b86101b3366004611d96565b611311565b60405161010c9190611db1565b6101d86101d3366004611dc4565b6113ab565b604051901515815260200161010c565b6101fb6101f6366004611d96565b6113d6565b60405161010c9190611e01565b6101d8610216366004611dc4565b805160208183018101805160018252928201919093012091525460ff1681565b6101a3610244366004611e45565b611442565b60055461025c906001600160a01b031681565b6040516001600160a01b03909116815260200161010c565b610287610282366004611af1565b61150f565b60405161010c9493929190611e93565b600260205281600052604060002081815481106102b357600080fd5b90600052602060002001600091509150505481565b6060600060035467ffffffffffffffff8111156102e7576102e7611bcd565b60405190808252806020026020018201604052801561032057816020015b61030d61188f565b8152602001906001900390816103055790505b50905060015b60035481116106bc57600081815260208181526040918290208251610160810184528154815260018201546001600160a01b031692810192909252600281018054929391929184019161037890611eca565b80601f01602080910402602001604051908101604052809291908181526020018280546103a490611eca565b80156103f15780601f106103c6576101008083540402835291602001916103f1565b820191906000526020600020905b8154815290600101906020018083116103d457829003601f168201915b5050505050815260200160038201805461040a90611eca565b80601f016020809104026020016040519081016040528092919081815260200182805461043690611eca565b80156104835780601f1061045857610100808354040283529160200191610483565b820191906000526020600020905b81548152906001019060200180831161046657829003601f168201915b5050505050815260200160048201805461049c90611eca565b80601f01602080910402602001604051908101604052809291908181526020018280546104c890611eca565b80156105155780601f106104ea57610100808354040283529160200191610515565b820191906000526020600020905b8154815290600101906020018083116104f857829003601f168201915b5050505050815260200160058201805461052e90611eca565b80601f016020809104026020016040519081016040528092919081815260200182805461055a90611eca565b80156105a75780601f1061057c576101008083540402835291602001916105a7565b820191906000526020600020905b81548152906001019060200180831161058a57829003601f168201915b505050918352505060068201546020820152600782015460ff808216151560408401526101009091041660608201526008820180546080909201916105eb90611eca565b80601f016020809104026020016040519081016040528092919081815260200182805461061790611eca565b80156106645780601f1061063957610100808354040283529160200191610664565b820191906000526020600020905b81548152906001019060200180831161064757829003601f168201915b5050509183525050600991909101546001600160a01b03166020909101528261068e600184611f14565b8151811061069e5761069e611f2d565b602002602001018190525080806106b490611f43565b915050610326565b50919050565b60006020819052908152604090208054600182015460028301805492936001600160a01b03909216926106f490611eca565b80601f016020809104026020016040519081016040528092919081815260200182805461072090611eca565b801561076d5780601f106107425761010080835404028352916020019161076d565b820191906000526020600020905b81548152906001019060200180831161075057829003601f168201915b50505050509080600301805461078290611eca565b80601f01602080910402602001604051908101604052809291908181526020018280546107ae90611eca565b80156107fb5780601f106107d0576101008083540402835291602001916107fb565b820191906000526020600020905b8154815290600101906020018083116107de57829003601f168201915b50505050509080600401805461081090611eca565b80601f016020809104026020016040519081016040528092919081815260200182805461083c90611eca565b80156108895780601f1061085e57610100808354040283529160200191610889565b820191906000526020600020905b81548152906001019060200180831161086c57829003601f168201915b50505050509080600501805461089e90611eca565b80601f01602080910402602001604051908101604052809291908181526020018280546108ca90611eca565b80156109175780601f106108ec57610100808354040283529160200191610917565b820191906000526020600020905b8154815290600101906020018083116108fa57829003601f168201915b505050600684015460078501546008860180549596929560ff808416965061010090930490921693509061094a90611eca565b80601f016020809104026020016040519081016040528092919081815260200182805461097690611eca565b80156109c35780601f10610998576101008083540402835291602001916109c3565b820191906000526020600020905b8154815290600101906020018083116109a657829003601f168201915b505050600990930154919250506001600160a01b03168b565b604051661cdd1d59195b9d60ca1b602082015260009060270160408051601f19818403018152828252805160209182012033600090815260048352929092209192610a28929101611f5c565b6040516020818303038152906040528051906020012014610a9c5760405162461bcd60e51b8152602060048201526024808201527f4f6e6c792073747564656e74732063616e207375626d69742061737369676e6d604482015263656e747360e01b60648201526084015b60405180910390fd5b600182604051610aac9190611fd2565b9081526040519081900360200190205460ff1615610b1d5760405162461bcd60e51b815260206004820152602860248201527f41737369676e6d656e7420776974682074686973206861736820616c72656164604482015267792065786973747360c01b6064820152608401610a93565b60038054906000610b2d83611f43565b909155505060035460408051610160810182528281523360208083019182528284018a8152606084018a90526080840189905260a084018890524260c0850152600060e085018190526101008501819052855180840187528181526101208601526101408501819052868152918290529390208251815590516001820180546001600160a01b0319166001600160a01b0390921691909117905591519091906002820190610bdb908261203d565b5060608201516003820190610bf0908261203d565b5060808201516004820190610c05908261203d565b5060a08201516005820190610c1a908261203d565b5060c0820151600682015560e08201516007820180546101008086015160ff160261ff00199315159390931661ffff19909116179190911790556101208201516008820190610c69908261203d565b506101409190910151600990910180546001600160a01b0319166001600160a01b039092169190911790556040516001908190610ca7908690611fd2565b9081526040805160209281900383018120805460ff191694151594909417909355336000818152600284529182208054600181018255908352929091209091018390559082907fa0743d2ebbcf02b554be8911ee93d65b945b6eb845ddc2588fcd018a553bf23890610d1c90879042906120fd565b60405180910390a395945050505050565b610d3561188f565b600082815260208181526040918290208251610160810184528154815260018201546001600160a01b0316928101929092526002810180549293919291840191610d7e90611eca565b80601f0160208091040260200160405190810160405280929190818152602001828054610daa90611eca565b8015610df75780601f10610dcc57610100808354040283529160200191610df7565b820191906000526020600020905b815481529060010190602001808311610dda57829003601f168201915b50505050508152602001600382018054610e1090611eca565b80601f0160208091040260200160405190810160405280929190818152602001828054610e3c90611eca565b8015610e895780601f10610e5e57610100808354040283529160200191610e89565b820191906000526020600020905b815481529060010190602001808311610e6c57829003601f168201915b50505050508152602001600482018054610ea290611eca565b80601f0160208091040260200160405190810160405280929190818152602001828054610ece90611eca565b8015610f1b5780601f10610ef057610100808354040283529160200191610f1b565b820191906000526020600020905b815481529060010190602001808311610efe57829003601f168201915b50505050508152602001600582018054610f3490611eca565b80601f0160208091040260200160405190810160405280929190818152602001828054610f6090611eca565b8015610fad5780601f10610f8257610100808354040283529160200191610fad565b820191906000526020600020905b815481529060010190602001808311610f9057829003601f168201915b505050918352505060068201546020820152600782015460ff80821615156040840152610100909104166060820152600882018054608090920191610ff190611eca565b80601f016020809104026020016040519081016040528092919081815260200182805461101d90611eca565b801561106a5780601f1061103f5761010080835404028352916020019161106a565b820191906000526020600020905b81548152906001019060200180831161104d57829003601f168201915b5050509183525050600991909101546001600160a01b031660209091015292915050565b604051673632b1ba3ab932b960c11b602082015260280160408051601f198184030181528282528051602091820120336000908152600483529290922091926110d8929101611f5c565b60405160208183030381529060405280519060200120148061110457506005546001600160a01b031633145b6111675760405162461bcd60e51b815260206004820152602e60248201527f4f6e6c79206c65637475726572206f722061646d696e2063616e20706572666f60448201526d3936903a3434b99030b1ba34b7b760911b6064820152608401610a93565b60008381526020819052604081205490036111c45760405162461bcd60e51b815260206004820152601960248201527f41737369676e6d656e7420646f6573206e6f74206578697374000000000000006044820152606401610a93565b60008381526020819052604090206007015460ff16156112265760405162461bcd60e51b815260206004820152601960248201527f41737369676e6d656e7420616c726561647920677261646564000000000000006044820152606401610a93565b60648260ff16111561127a5760405162461bcd60e51b815260206004820152601f60248201527f4772616465206d757374206265206265747765656e203020616e6420313030006044820152606401610a93565b600083815260208190526040902060078101805460ff85166101000261ffff199091161760011790556008016112b0828261203d565b506000838152602081815260409182902060090180546001600160a01b03191633908117909155915160ff8516815285917fa19c26b067d4c81c1a2e0cf64f56cb3bf269862928e406811332cd3c13eed1ed910160405180910390a3505050565b6004602052600090815260409020805461132a90611eca565b80601f016020809104026020016040519081016040528092919081815260200182805461135690611eca565b80156113a35780601f10611378576101008083540402835291602001916113a3565b820191906000526020600020905b81548152906001019060200180831161138657829003601f168201915b505050505081565b60006001826040516113bd9190611fd2565b9081526040519081900360200190205460ff1692915050565b6001600160a01b03811660009081526002602090815260409182902080548351818402810184019094528084526060939283018282801561143657602002820191906000526020600020905b815481526020019060010190808311611422575b50505050509050919050565b6005546001600160a01b031633146114a75760405162461bcd60e51b815260206004820152602260248201527f4f6e6c792061646d696e2063616e20706572666f726d2074686973206163746960448201526137b760f11b6064820152608401610a93565b6001600160a01b03821660009081526004602052604090206114c9828261203d565b50816001600160a01b03167f3565795c2fb8842c21347d277937778bbcfe788b5b4f790fc5e408786cbe9c90826040516115039190611db1565b60405180910390a25050565b6000818152602081815260408083208151610160810183528154815260018201546001600160a01b03169381019390935260028101805460609486948594859492939092918401919061156190611eca565b80601f016020809104026020016040519081016040528092919081815260200182805461158d90611eca565b80156115da5780601f106115af576101008083540402835291602001916115da565b820191906000526020600020905b8154815290600101906020018083116115bd57829003601f168201915b505050505081526020016003820180546115f390611eca565b80601f016020809104026020016040519081016040528092919081815260200182805461161f90611eca565b801561166c5780601f106116415761010080835404028352916020019161166c565b820191906000526020600020905b81548152906001019060200180831161164f57829003601f168201915b5050505050815260200160048201805461168590611eca565b80601f01602080910402602001604051908101604052809291908181526020018280546116b190611eca565b80156116fe5780601f106116d3576101008083540402835291602001916116fe565b820191906000526020600020905b8154815290600101906020018083116116e157829003601f168201915b5050505050815260200160058201805461171790611eca565b80601f016020809104026020016040519081016040528092919081815260200182805461174390611eca565b80156117905780601f1061176557610100808354040283529160200191611790565b820191906000526020600020905b81548152906001019060200180831161177357829003601f168201915b505050918352505060068201546020820152600782015460ff808216151560408401526101009091041660608201526008820180546080909201916117d490611eca565b80601f016020809104026020016040519081016040528092919081815260200182805461180090611eca565b801561184d5780601f106118225761010080835404028352916020019161184d565b820191906000526020600020905b81548152906001019060200180831161183057829003601f168201915b5050509183525050600991909101546001600160a01b0316602091820152815160a08301519183015160c0909301519015159991985091965090945092505050565b6040518061016001604052806000815260200160006001600160a01b031681526020016060815260200160608152602001606081526020016060815260200160008152602001600015158152602001600060ff1681526020016060815260200160006001600160a01b031681525090565b80356001600160a01b038116811461191757600080fd5b919050565b6000806040838503121561192f57600080fd5b61193883611900565b946020939093013593505050565b60005b83811015611961578181015183820152602001611949565b50506000910152565b60008151808452611982816020860160208601611946565b601f01601f19169290920160200192915050565b60006101608251845260208301516119b960208601826001600160a01b03169052565b5060408301518160408601526119d18286018261196a565b915050606083015184820360608601526119eb828261196a565b91505060808301518482036080860152611a05828261196a565b91505060a083015184820360a0860152611a1f828261196a565b91505060c083015160c085015260e0830151611a3f60e086018215159052565b506101008381015160ff16908501526101208084015185830382870152611a66838261196a565b9250505061014080840151611a85828701826001600160a01b03169052565b5090949350505050565b6000602080830181845280855180835260408601915060408160051b870101925083870160005b82811015611ae457603f19888603018452611ad2858351611996565b94509285019290850190600101611ab6565b5092979650505050505050565b600060208284031215611b0357600080fd5b5035919050565b8b81526001600160a01b038b16602082015261016060408201819052600090611b358382018d61196a565b90508281036060840152611b49818c61196a565b90508281036080840152611b5d818b61196a565b905082810360a0840152611b71818a61196a565b90508760c084015286151560e0840152611b9161010084018760ff169052565b828103610120840152611ba4818661196a565b915050611bbd6101408301846001600160a01b03169052565b9c9b505050505050505050505050565b634e487b7160e01b600052604160045260246000fd5b600082601f830112611bf457600080fd5b813567ffffffffffffffff80821115611c0f57611c0f611bcd565b604051601f8301601f19908116603f01168101908282118183101715611c3757611c37611bcd565b81604052838152866020858801011115611c5057600080fd5b836020870160208301376000602085830101528094505050505092915050565b60008060008060808587031215611c8657600080fd5b843567ffffffffffffffff80821115611c9e57600080fd5b611caa88838901611be3565b95506020870135915080821115611cc057600080fd5b611ccc88838901611be3565b94506040870135915080821115611ce257600080fd5b611cee88838901611be3565b93506060870135915080821115611d0457600080fd5b50611d1187828801611be3565b91505092959194509250565b602081526000611d306020830184611996565b9392505050565b600080600060608486031215611d4c57600080fd5b83359250602084013560ff81168114611d6457600080fd5b9150604084013567ffffffffffffffff811115611d8057600080fd5b611d8c86828701611be3565b9150509250925092565b600060208284031215611da857600080fd5b611d3082611900565b602081526000611d30602083018461196a565b600060208284031215611dd657600080fd5b813567ffffffffffffffff811115611ded57600080fd5b611df984828501611be3565b949350505050565b6020808252825182820181905260009190848201906040850190845b81811015611e3957835183529284019291840191600101611e1d565b50909695505050505050565b60008060408385031215611e5857600080fd5b611e6183611900565b9150602083013567ffffffffffffffff811115611e7d57600080fd5b611e8985828601611be3565b9150509250929050565b8415158152608060208201526000611eae608083018661196a565b6001600160a01b03949094166040830152506060015292915050565b600181811c90821680611ede57607f821691505b6020821081036106bc57634e487b7160e01b600052602260045260246000fd5b634e487b7160e01b600052601160045260246000fd5b81810381811115611f2757611f27611efe565b92915050565b634e487b7160e01b600052603260045260246000fd5b600060018201611f5557611f55611efe565b5060010190565b6000808354611f6a81611eca565b60018281168015611f825760018114611f9757611fc6565b60ff1984168752821515830287019450611fc6565b8760005260208060002060005b85811015611fbd5781548a820152908401908201611fa4565b50505082870194505b50929695505050505050565b60008251611fe4818460208701611946565b9190910192915050565b601f82111561203857600081815260208120601f850160051c810160208610156120155750805b601f850160051c820191505b8181101561203457828155600101612021565b5050505b505050565b815167ffffffffffffffff81111561205757612057611bcd565b61206b816120658454611eca565b84611fee565b602080601f8311600181146120a057600084156120885750858301515b600019600386901b1c1916600185901b178555612034565b600085815260208120601f198616915b828110156120cf578886015182559484019460019091019084016120b0565b50858210156120ed5787850151600019600388901b60f8161c191681555b5050505050600190811b01905550565b604081526000612110604083018561196a565b9050826020830152939250505056fea26469706673582212203fa5e934d4a236f119775f3762bc9d7a7066e9580d06b1b88676172e50c9638d64736f6c63430008130033",
  "linkReferences": {},
  "deployedLinkReferences": {}
}